:101815001217717F017E0012152D1217C81213764B
:101825007F807E251217437F647E0012152DD2AF6F
:0218350080FE33
:101879009000477403F0A3743FF07B017A00794725
:0C188900E4FF120B757D3FE4FF02179E88
:1017C800E490003FF0A3F0A304F0E4A3F0A3F0A397
:1017D80074F7F0A3745DF0A37401F0FB7A00793F0D
:0717E800FF120D3E0218790B
:1017EF00EF245DFDEE34F7FCC3E49FFFE49EC2AF30
:1017FF00900061F0A3EFF0AE04AF0590005FEEF044
:05180F00A3EFF0D2AFD1
:0118140022B1
:03001B0002160AC0
:10160A00C0E0C083C082C0D075D000C004C005301D
:10161A008413900061E0FCA3E0FDECF58D8D8BC294
:10162A0084C285801190005FE0FCA3E0FDECF58D9B
:10163A008D8BD284D285D005D004D0D0D082D083ED
:03164A00D0E032BB
:10108000900067EFF0A3ECF0A3EDF0C394F4EC94C0
:1010900001500A9000687401F0A374F4F0900068A5
:1010A000E0FEA3E0FFE4FCFD7BA27A08F9F8C3129E
:1010B0000AC7500A9000687408F0A374A2F0900068
:1010C00067E0B4070040030211749010D1F828289B
:1010D000730210E60210EF0210FF02110F02111846
:1010E00002112F02114D7D08E4FF12179E80177D1B
:1010F00008E4FF1217137D04E4FF12179E803E7D63
:1011000008E4FF1217137D04E4FF12171380177D04
:1011100008E4FF12179E803C7D08E4FF1217137D40
:1011200004E4FF12179E7D01E4FF12179E80337DB9
:1011300008E4FF12179E7D04E4FF1217137D01E4FB
:10114000FF1217137D02E4FF12179E801C7D08E436
:10115000FF1217137D04E4FF1217137D01E4FF1241
:1011600017137D02E4FF121713900068E0FEA3E05E
:10117000FF0217EF7D08E4FF1217137D04E4FF124E
:1011800017137D01E4FF1217137D02E4FF121713FA
:01119000223C
:10003E0000000000000000000000000000000000B2
:10004E00000000F800000000000000333000000047
:10005E0000100C06100C060000000000000000004E
:10006E0040C07840C0784000043F04043F040400C0
:10007E00007088FC08300000001820FF211E0000D0
:10008E00F008F000E018000000211C031E211E00E5
:10009E0000F00888700000001E212324192721106B
:1000AE0010160E000000000000000000000000000E
:1000BE00000000E0180402000000000718204000B5
:1000CE0000020418E00000000040201807000000A5
:1000DE00404080F0804040000202010F0102020009
:1000EE00000000F0000000000101011F01010100ED
:1000FE00000000000000000080B070000000000052
:10010E0000000000000000000001010101010101DA
:10011E000000000000000000003030000000000071
:10012E000000000080601804006018060100000046
:10013E0000E010080810E000000F102020100F0043
:10014E00001010F8000000000020203F20200000CA
:10015E000070080808887000003028242221300022
:10016E0000300888884830000018202020110E002A
:10017E000000C02010F8000000070424243F2400D3
:10018E0000F80888880808000019212020110E00A8
:10019E0000E0108888180000000F112020110E00BA
:1001AE0000380808C83808000000003F00000000B2
:1001BE000070880808887000001C222121221C0073
:1001CE0000E010080810E0000000312222110F009C
:1001DE00000000C0C0000000000000303000000031
:1001EE0000000080000000000000806000000000A1
:1001FE0000008040201008000001020408102000BA
:10020E004040404040404000040404040404040004
:10021E000008102040800000002010080402010099
:10022E00007048080808F000000000303601000099
:10023E00C030C828E810E0000718272423140B004C
:10024E000000C038E0000000203C230202273820C6
:10025E0008F8888888700000203F202020110E00AA
:10026E00C0300808080838000718202020100800A1
:10027E0008F808080810E000203F202020100F008A
:10028E0008F88888E8081000203F20202320180056
:10029E0008F88888E8081000203F200003000000BE
:1002AE00C03008080838000007182020221E02005F
:1002BE0008F808000008F808203F210101213F201E
:1002CE00000808F8080800000020203F2020000049
:1002DE0000000808F8080800C08080807F00000039
:1002EE0008F888C028180800203F20012638200072
:1002FE0008F8080000000000203F202020203000D9
:10030E0008F8F800F8F80800203F003F003F2000F2
:10031E0008F830C00008F808203F200007183F00FA
:10032E00E01008080810E0000F10202020100F0029
:10033E0008F808080808F000203F2101010100001C
:10034E00E01008080810E0000F18242438504F0061
:10035E0008F8888888887000203F2000030C302021
:10036E0000708808080838000038202121221C005F
:10037E00180808F8080818000000203F20000000A8
:10038E0008F808000008F808001F202020201F0091
:10039E000878880000C83808000007380E010000F1
:1003AE00F80800F80008F800033C0700073C0300BB
:1003BE00081868808068180820302C03032C302021
:1003CE000838C800C83808000000203F2000000090
:1003DE0010080808C83808002038262120201800E8
:1003EE00000000FE020202000000007F40404000BC
:1003FE00000C30C000000000000000010638C000F4
:10040E0000020202FE000000004040407F0000009B
:10041E0000000402020204000000000000000000C0
:10042E0000000000000000008080808080808080BE
:10043E0000020204000000000000000000000000A6
:10044E0000008080808000000019242222223F209C
:10045E0008F8008080000000003F112020110E00DF
:10046E000000008080800000000E1120202011006E
:10047E00000000808088F800000E112020103F2020
:10048E000000808080800000001F222222221300A4
:10049E00008080F0888888180020203F20200000EF
:1004AE000000808080808000006B949494936000A4
:1004BE0008F8008080800000203F210000203F20AF
:1004CE0000809898000000000020203F20200000AF
:1004DE00000000809898000000C08080807F00009F
:1004EE0008F8000080808000203F24022D3020007C
:1004FE00000808F8000000000020203F2020000027
:10050E008080808080808000203F20003F20003F40
:10051E008080008080800000203F210000203F204E
:10052E000000808080800000001F202020201F00FF
:10053E00808000808000000080FFA12020110E002E
:10054E000000008080808000000E112020A0FF801F
:10055E00808080008080800020203F2120000100CC
:10056E000000808080808000003324242424190021
:10057E00008080E0808000000000001F202000002E
:10058E008080000000808000001F202020103F206F
:10059E00808080000080808000010E3008060100FF
:1005AE0080800080008080800F300C030C300F00A4
:1005BE0000808000808080000020312E0E312000CF
:1005CE00808080000080808080818E7018060100FF
:1005DE0000808080808080000021302C222130001D
:1005EE0000000000807C020200000000003F40403E
:1005FE0000000000FF00000000000000FF000000EF
:10060E000002027C800000000040403F000000001D
:10061E0000060101020204040000000000000000B8
:0918D500EF6003D2A522C2A52296
:0918DE00EF6003D2A422C2A4228F
:1016B300E490003FF0A37420F07B017A00793F7F30
:1016C30002120B75E490003FF0A37410F07B017AD3
:1016D30000793F7F02120B757F011218D50218DEC5
:0F18B0007F011218DE1218D51F1218DE0218D58C
:0C000E00E4FF1218DE0F1218D50218DEF5
:07168100AC071218B07F78DE
:02168800AE07AB
:10168A00E4FDA8057480088002C313D8FC5EFF122B
:10169A0018DE7F011218D51F1218D50DEDB408E215
:0916AA007F011218D51F0218D5AA
:10002600121681E4FF121688AF0412168802000E1B
:101859003EF583E5822DF582E43583F583E493FF34
:101869001216817F40121688AF0412168802000EE4
:061837001475F008A4FD89
:10183D00AB05EF44B0FF120026EB54F0C4540F4437
:0C184D0010FF120026EB540FFF020026D3
:10189500E4FAAF02E4FD12183DE4FBE4FF12186917
:0A18A5000BEBB480F60AEAB408E881
:0118AF002216
:0D12E200900065EBF0900063EFF0A3EDF0DD
:1012EF00EF1425E0FFED121837E4900066F0900040
:1012FF0066E0FDC394085029900065E0FF3395E048
:10130F00FEEFC4F8540FC868FFEEC454F048FE74E3
:10131F003E2FF58274FE121859900066E004F0809B
:10132F00CD900063E025E014FFA3E0121837E4909E
:10133F000066F0900066E0FDC394085029900065A8
:10134F00E0FF3395E0FEEFC4F8540FC868FFEEC41A
:10135F0054F048FE74462FF58274FE12185990000F
:06136F0066E004F080CDF1
:011375002255
:10157E00900054EFF0A3EDF0A3EBF0A3EAF0A3E993
:01158E00F06C
:10158F00E4A3F0900056E0FBA3E0FAA3E0F9A3E098
:10159F00F58275830012090BFB601B900054E0FF6E
:1015AF00900059E0FE900055E02EFD1212E29000DF
:0615BF0059E004F080CDAC
:0115C5002203
:101376001216B37FAE1200267FD51200267F80128A
:1013860000267FA81200267F3F1200267FD3120078
:1013960026E4FF1200267F401200267FA1120026B7
:1013A6007FC81200267FDA1200267F121200267FDF
:1013B600811200267FCF1200267FD91200267FF1E8
:1013C6001200267FDB1200267F301200267FA41231
:1013D60000267FA61200267F8D1200267F1412009B
:0913E600267FAF120026021895C3
:1017430090003F7440F0A37402F0E4FCFDA3120B7D
:10175300339000467401F0E4A3F0A304F0A3F0A3D4
:0E1763007440F07B017A00793F7F0102062E70
:0513EF0090005AEDF032
:1013F400E4A3F0A3EBF0A3EAF0A3E9F090005AE031
:10140400FFA3E0FEC39F5055C2AF900001E0FF90E0
:101414000000E0B50704D2AF8043900000E024024E
:10142400F582E43400F583E0FF90005CE0FBA3E088
:10143400FAA3E0F98E82758300EF12094A90000046
:10144400E02401FFE433FE7C007D2812096CAF0523
:10145400EDF0D2AF0090005BE004F0809F90005B61
:02146400E0FFA7
:011466002263
:1016E30090006AEBF0A3EAF0A3E9F0E4FFEFC39DF7
:1016F300501D90006AE0FBA3E0FAA3E0F98F827526
:0F170300830012090BF5993099FDC2990F80DE12
:0117120022B4
:030023000214675D
:10146700C0E0C0F0C083C082C0D075D000C000C04B
:0914770003C004C005C006C00753
:10148000309842AB99C298900001E02401FFE43308
:10149000FE7C007D2812096CAF05900000E06D60B5
:1014A00024AF03A3E02402F582E43400F583EBF0DB
:1014B000900001E02401FFE433FE7C007D28120946
:0514C0006CAF05EDF02A
:1014C500D007D006D005D004D003D000D0D0D0822C
:0714D500D083D0F0D0E0321B
:080003008F993099FDC299228A
:100B7500EFD3940540057E007F01221208F2FDD3D4
:100B8500940340057E007F0222EF7041ED700B90CB
:100B9500000112090BF4529352941208F2B4010B9E
:100BA50090000112090B4293F452941208F2FEB41C
:100BB500020A90000112090B42934294EEB4030D10
:100BC50090000112090BFEF45293EE4294EF64017A
:100BD50070431208F2FE700B90000112090BF452DB
:100BE500915292EEB4010B90000112090B4291F45F
:100BF50052921208F2B4020A90000112090B4291B6
:100C050042921208F2B4030D90000112090BFEF492
:100C15005291EE4292EF640270431208F2FE700B9D
:100C250090000112090BF452955296EEB4010B9007
:100C3500000112090B4295F452961208F2B4020A09
:100C450090000112090B429542961208F2B4030D69
:100C550090000112090BFEF45295EE4296EF6403E3
:100C650070431208F2FE700B90000112090BF4524A
:100C7500B152B2EEB4010B90000112090B42B1F46E
:100C850052B21208F2B4020A90000112090B42B1E5
:100C950042B21208F2B4030D90000112090BFEF4E2
:100CA50052B1EE42B2EF640470431208F2FE700BCB
:100CB50090000112090BF452B352B4EEB4010B903B
:100CC500000112090B42B3F452B41208F2B4020A3D
:100CD50090000112090B42B342B41208F2B4030D9D
:100CE50090000112090BFEF452B3EE42B4EF640515
:100CF50070431208F2FF700B90000112090BF452B9
:100D0500C952CAEFB4010B90000112090B42C9F494
:100D150052CA1208F2B4020A90000112090B42C924
:100D250042CA1208F2B4030D90000112090BFFF438
:090D350052C9EF42CAE4FEFF229C
:10179E00EF7003ED4280EFB40103ED4290EFB4021F
:1017AE0003ED42A0EFB40303ED42B0EFB40403ED3A
:0A17BE0042C0EFB40503ED42C8225B
:10171300EF7004EDF45280EFB40104EDF45290EF56
:10172300B40204EDF452A0EFB40304EDF452B0EFAD
:10173300B40404EDF452C0EFB40504EDF452C8222E
:10164D00EF7004AE808026EFB40104AE90801EEFE3
:10165D00B40204AEA08016EFB40304AEB0800EEF5A
:10166D00B40404AEC08006EFB40507AEC8EE5D2429
:03167D00FF22C386
:011680002247
:02003600F8CD03
:1017710090003F7401F0A3F0A3F0A3F0E4A3F09074
:10178100003693FF740193900044CFF0A3EFF0A3D0
:0D1791007401F0FB7A00793FE4FF020D3E89
:03000B000214DC00
:1014DC00C0E0C0F0C083C082C0D075D000C000C0D6
:1014EC0004C005C006C007900036E493FE74019357
:1014FC00F58AEEF58C7808120AEBEF2401FFE43E36
:10150C00FEE43DFDE43CFC7808120B27D007D00626
:10151C00D005D004D000D0D0D082D083D0F0D0E091
:01152C00328C
:0918CB00C2AF7808120AEBD2AF9B
:0118D40022F1
:04001E007F03DFFE7F
:0100220022BB
:0718F0000000007F34DFFE61
:0118F70022CE
:0818E7007F037E1ADEFEDFFC28
:0118EF0022D6
:1015C600AD07AC06C3ED9464EC9400400D1218E729
:1015D600749C2DFD74FF3CFC80EAC3ED940AEC94E8
:1015E60000400D1218F074F62DFD74FF3CFC80EAE5
:1015F600D3ED9400EC9400400A12001EED1D70F02D
:041606001C80ED2235
:08152D0090003FEEF0A3EFF087
:101535001218CB900041120B331218CB90004512B4
:101545000B33900041E0F8A3E0F9A3E0FAA3E0FB38
:10155500A3E0FCA3E0FDA3E0FEA3E0C39BFBEE9AA2
:10156500FAED99F9EC98F890003FE0FEA3E0FFE46E
:08157500FCFDC3120AC740C1CE
:01157D00224B
:100D3E00AD07EDD3940240057E007F0122ED6003E6
:100D4E00020DD4C28C90000212090BB40104D2A978
:100D5E008002C2A990000112090BB40104D2B9801D
:100D6E0002C2B91208F2FCD394034003020EDCE572
:100D7E008954FC4CF58990000312090BFFB4010352
:100D8E00538E7FEF7003438E80EFB40205438904C8
:100D9E0080035389FB90000412090BB40105438FA5
:100DAE00018003538FFE9000051209C1E5F0F58C0A
:100DBE009000051209C1F58A90000712090BB401C3
:100DCE0002D28C020ED8ED64016003020E63C28E55
:100DDE0090000212090BB40104D2AB8002C2AB9098
:100DEE00000112090BB40104D2BB8002C2BB12086F
:100DFE00F2FCC394034003020EDCECC454F0FFE596
:100E0E008954CF4FF58990000312090BFFB40103EB
:100E1E00538EBFEF7003438E40EFB40205438940FB
:100E2E0080035389BF90000412090BB40105438F50
:100E3E00028003538FFD9000051209C1E5F0F58D78
:100E4E009000051209C1F58B90000712090BB40131
:100E5E0002D28E8075ED64027074538EEF90000294
:100E6E0012090BB4010543AF04800353AFFB90008E
:100E7E000312090BFDD3940240028052EDB401031C
:100E8E00538EFB90000312090B7003438E049000E7
:100E9E000312090BB40205438E088003538EF7909C
:100EAE00000412090BB40105438F048003538FFB1A
:100EBE009000051209C1FDACF0ECF5D68DD790006F
:100ECE000712090BB40103438E10E4FEFF227E00CD
:030EDE007F02226E
:10119100EF7034D3ED9450EC940F40047C0F7D50EC
:1011A100C3ED9450EC940050047C007D50C2DE905D
:1011B1000033ECF0A3EDF0C374A09D90002EF07409
:1011C1000F9C90002D8073EF64017034D3ED94680F
:1011D100EC940B40047C0B7D68C3ED9450EC9400BF
:1011E10050047C007D50C2DE900035ECF0A3EDF0A0
:1011F100C374B89D900030F0740B9C90002F803A1E
:10120100EF64027038D3ED9480EC940740047C07BE
:101211007D80C3ED9450EC940050047C007D50C25D
:10122100DE900037ECF0A3EDF0AE04FFC374D09F65
:0E123100900032F074079E900031F0D2DE2261
:100EE10090006DEBF0A3EAF0A3E9F0AD07EDD39428
:100EF10003400302107FED6403704CC2DEF5F9F587
:100F0100E990006DE0FBA3E0FAA3E0F91208F2FF1B
:100F1100E5A254CF4FF5A290000112090BFFE5D9CC
:100F210054F14FF5D990000412090B5401FFE5D992
:100F310054FE4FF5D990000512090BB40104D2BF3C
:100F41008002C2BFD2DE2290006DE0FBA3E0FAA3D3
:100F5100E02404F9E43AFA1208F254311209389003
:100F6100006DE0FBA3E0FAA3E0F990000212090B87
:100F7100C39448400FE92404F9E43AFA1208F25400
:100F8100CF120938ED704F90006DE0FBA3E0FAA39A
:100F9100E0F990000412090BFF90000212090BFE08
:100FA1004FF5DA90000312090BFFE5F2543F4FF5BC
:100FB100F29000061209C1FBAAF0900033EAF0A3F7
:100FC100EBF0C20090002AEEF0900039EAF0A3EBBA
:100FD100F0F5EAEAF5FAED6401704F90006DE0FB7F
:100FE100A3E0FAA3E0F990000412090BFF900002BC
:100FF10012090BFE4FF5DB90000312090BFFE5F31D
:10100100543F4FF5F39000061209C1FBAAF090007E
:1010110035EAF0A3EBF0C20190002BEEF090003B1B
:10102100EAF0A3EBF0F5EBEAF5FBED6402704F900B
:10103100006DE0FBA3E0FAA3E0F990000412090BB4
:10104100FF90000212090BFE4FF5DC90000312091C
:101051000BFFE5F4543F4FF5F49000061209C1FD72
:10106100ACF0900037ECF0A3EDF0C20290002CEE52
:0F107100F090003DECF0A3EDF0F5ECECF5FC2277
:03003B0002123F6F
:10123F00C0E0C083C082C0D075D000C006C00730E8
:10124F00D82AC2D830A505900033800390002DE036
:10125F00FEA3E0FF90003AE02FF0900039E03EF05F
:10126F00900039E0FEA3E0F5EAEEF5FA30D92AC294
:10127F00D930A605900035800390002FE0FEA3E043
:10128F00FF90003CE02FF090003BE03EF090003BE1
:10129F00E0FEA3E0F5EBEEF5FB30DA2AC2DA30A779
:1012AF00059000378003900031E0FEA3E0FF90002F
:1012BF003EE02FF090003DE03EF090003DE0FEA3B9
:1012CF00E0F5ECEEF5FCD007D006D0D0D082D0837D
:0312DF00D0E0322A
:10062E0090004DEBF0A3EAF0A3E9F090004CEFF050
:10063E00640160030207E7A3E0FBA3E0FAA3E0F97D
:10064E001208F2D394C040037F022290000A1209CE
:10065E000BB40104D2BC8002C2BC1208F2FFE598B2
:10066E00543F4FF598EF64C06008EF64406003029A
:10067E000761900002120AF77F007E607D547C00B5
:10068E00120A35900050120B33E4FFFE7D01FC90F0
:10069E000050E0F8A3E0F9A3E0FAA3E0FBC3120ACE
:1006AE00C740037F0222900050E0F8A3E0F9A3E0D8
:1006BE00FAA3E0FBC3E49BFFE49AFE740199FDE408
:1006CE0098FC900050120B3390004DE0FBA3E0FA23
:1006DE00A3E0F990000112090BFB64017038C28E81
:1006EE00538EFE5389BF5389CF438E40900050E006
:1006FE00FCA3E0FDA3E0FEA3E0FF7808120AD88F6A
:10070E008D900050A3A3A3E0F58BC2AB5389BF53CA
:10071E008FFDD28E8076EB64027035538EEF438E52
:10072E0001538EF7438E04900050E0FCA3E0FDA32E
:10073E00E0FEA3E0FF7808120AD88FD6900050A3EF
:10074E00A3A3E0F5D753AFFB538EF7438E10803C37
:10075E007F022290004DE0FBA3E0FAA3E0F912081D
:10076E00F2FF701390000812090BB40105438E209E
:10077E00801A538EDF8015EFB48011900008120995
:10078E000BB40105438780800353877F90004DE0B3
:10079E00FBA3E0FAA3E0F990000912090BB40104DF
:1007AE00D2AC8002C2AC90000712090BB40104D285
:1007BE009C8002C29C90000B12090B54C0FFE5A254
:1007CE00543F4FF5A290000C12090BB4010543974C
:1007DE001080035397EF7F002290004CE06402607C
:1007EE00030208EFA3E0FBA3E0FAA3E0F91208F27C
:1007FE00FF64C06008EF644060030208AF90000A17
:10080E0012090BB4010543B501800353B5FE12085E
:10081E00F2B4C005439A808003539A7F900002126F
:10082E000AF77F007E607D547C00120A35900050DE
:10083E00120B33E4FFFE7D01FC900050E0F8A3E0C4
:10084E00F9A3E0FAA3E0FBC3120AC740037F02221A
:10085E00900050E0F8A3E0F9A3E0FAA3E0FBC3E4B4
:10086E009BFFE49AFE740199FDE498FC90005012EF
:10087E000B33538EEF538EF7438E04900050E0FCF3
:10088E00A3E0FDA3E0FEA3E0FF7808120AD88FD6FE
:10089E00900050A3A3A3E0F5D753AFFB438E108077
:1008AE00037F022290004DE0FBA3E0FAA3E0F99053
:1008BE00000912090BB4010543AF01800353AFFECB
:1008CE0090000712090BB40105439A108003539A46
:1008DE00EF90000B12090B5401FFE5BA54FE4FF5D1
:0308EE00BA7F00CE
:0108F10022E4
:030000000218BF24
:0C18BF00787FE4F6D8FD75812002181532
:1008F200BB010689828A83E0225002E722BBFE0204
:09090200E32289828A83E4932236
:10090B00BB010CE58229F582E5833AF583E02250A1
:10091B0006E92582F8E622BBFE06E92582F8E222EB
:0D092B00E58229F582E5833AF583E4932205
:10093800BB010689828A83F0225002F722BBFE019E
:02094800F32298
:10094A00F8BB010DE58229F582E5833AF583E8F0E3
:10095A00225006E92582C8F622BBFE05E92582C88F
:02096A00F22277
:10096C00BC000BBE0029EF8DF084FFADF022E4CC6F
:10097C00F875F008EF2FFFEE33FEEC33FCEE9DEC38
:10098C00984005FCEE9DFE0FD5F0E9E4CEFD22ED7E
:10099C00F8F5F0EE8420D21CFEADF075F008EF2FC8
:1009AC00FFED33FD4007985006D5F0F222C398FDB9
:0509BC000FD5F0EA2256
:1009C100BB0110E58229F582E5833AF583E0F5F074
:1009D100A3E0225009E92582F886F008E622BBFE51
:1009E1000AE92582F8E2F5F008E222E5832AF58397
:0809F100E993F5F0A3E993225C
:1009F90075F008758200EF2FFFEE33FECD33CDCCB5
:100A090033CCC58233C5829BED9AEC99E582984037
:100A19000CF582EE9BFEED9AFDEC99FC0FD5F0D614
:100A2900E4CEFBE4CDFAE4CCF9A88222B800C1B93E
:100A39000059BA002DEC8BF084CFCECDFCE5F0CB7C
:100A4900F97818EF2FFFEE33FEED33FDEC33FCEBB5
:100A590033FB10D703994004EB99FB0FD8E5E4F970
:100A6900FA227818EF2FFFEE33FEED33FDEC33FC5D
:100A7900C933C910D7059BE99A4007EC9BFCE99A51
:100A8900F90FD8E0E4C9FAE4CCFB2275F010EF2F96
:100A9900FFEE33FEED33FDCC33CCC833C810D70796
:100AA9009BEC9AE899400AED9BFDEC9AFCE899F8D1
:0E0AB9000FD5F0DAE4CDFBE4CCFAE4C8F92264
:100AC700EB9FF5F0EA9E42F0E99D42F0E89C45F085
:010AD70022FC
:100AD800E8600FECC313FCED13FDEE13FEEF13FFFC
:030AE800D8F12220
:0C0AEB00E6FC08E6FD08E6FE08E6FF2237
:100AF700BB010DE58229F582E5833AF583020B4CAC
:100B07005007E92582F8020B3FBBFE07E92582F86B
:100B1700020B58E58229F582E5833AF583020B65D6
:0C0B2700ECF608EDF608EEF608EFF622FA
:0C0B3300ECF0A3EDF0A3EEF0A3EFF02235
:0D0B3F00E6FB08E6F908E6FA08E6CBF82226
:0C0B4C00E0F8A3E0F9A3E0FAA3E0FB222C
:0D0B5800E2FB08E2F908E2FA08E2CBF8221D
:100B6500E493F8740193F9740293FA740393FB22E6
:00000001FF
