:0B2C8B00496E6974696E672E2E2E00E2
:10291400122A6C7F017E001227B3122B1A12253063
:102924007BFF7A2C798B7D017F011228047F807EC6
:1029340025122A3E122C2A12270D122A997F647E10
:04294400000227B3B3
:102C40001229147FF47E011227B3122BC5121A34F5
:022C500080FB07
:102BA90090008F7403F0A3743FF07B017A00798F52
:0C2BB900E4FF12186B7D3FE4FF022AF0DD
:102B1A00E4900087F0A3F0A304F0E4A3F0A3F0A3E9
:102B2A0074F7F0A3745DF0A37401F0FB7A0079875F
:072B3A00FF121DAD022BA9E3
:102B4100EF245DFDEE34F7FCC3E49FFFE49EC2AFCA
:102B51009000C1F0A3EFF0AE04AF059000BFEEF01E
:052B6100A3EFF0D2AF6C
:012B6600224C
:03001B0002289028
:10289000C0E0C083C082C0D075D000C004C0053085
:1028A00084139000C1E0FCA3E0FDECF58D8D8BC29C
:1028B00084C28580119000BFE0FCA3E0FDECF58DA3
:1028C0008D8BD284D285D005D004D0D0D082D08355
:0328D000D0E03223
:1020EF0090008FEFF0A3ECF0A3EDF0C394F4EC9419
:1020FF0001500A9000907401F0A374F4F0900090D6
:10210F00E0FEA3E0FFE4FCFD7BA27A08F9F8C3121E
:10211F00080E500A9000907408F0A374A2F090007B
:10212F008FE0B4070040030221E3902140F82828F4
:10213F007302215502215E02216E02217E02218748
:10214F0002219E0221BC7D08E4FF122AF080177D38
:10215F0008E4FF122A0E7D04E4FF122AF0803E7D70
:10216F0008E4FF122A0E7D04E4FF122A0E80177D69
:10217F0008E4FF122AF0803C7D08E4FF122A0E7D4E
:10218F0004E4FF122AF07D01E4FF122AF080337D70
:10219F0008E4FF122AF07D04E4FF122A0E7D01E409
:1021AF00FF122A0E7D02E4FF122AF0801C7D08E444
:1021BF00FF122A0E7D04E4FF122A0E7D01E4FF12A6
:1021CF002A0E7D02E4FF122A0E900090E0FEA3E09B
:1021DF00FF022B417D08E4FF122A0E7D04E4FF125B
:1021EF002A0E7D01E4FF122A0E7D02E4FF122A0E51
:0121FF0022BD
:1009330000000000000000000000000000000000B4
:10094300000000F800000000000000333000000049
:1009530000100C06100C0600000000000000000050
:1009630040C07840C0784000043F04043F040400C2
:10097300007088FC08300000001820FF211E0000D2
:10098300F008F000E018000000211C031E211E00E7
:1009930000F00888700000001E212324192721106D
:1009A30010160E0000000000000000000000000010
:1009B300000000E0180402000000000718204000B7
:1009C30000020418E00000000040201807000000A7
:1009D300404080F0804040000202010F010202000B
:1009E300000000F0000000000101011F01010100EF
:1009F300000000000000000080B070000000000054
:100A030000000000000000000001010101010101DC
:100A13000000000000000000003030000000000073
:100A23000000000080601804006018060100000048
:100A330000E010080810E000000F102020100F0045
:100A4300001010F8000000000020203F20200000CC
:100A53000070080808887000003028242221300024
:100A630000300888884830000018202020110E002C
:100A73000000C02010F8000000070424243F2400D5
:100A830000F80888880808000019212020110E00AA
:100A930000E0108888180000000F112020110E00BC
:100AA30000380808C83808000000003F00000000B4
:100AB3000070880808887000001C222121221C0075
:100AC30000E010080810E0000000312222110F009E
:100AD300000000C0C0000000000000303000000033
:100AE30000000080000000000000806000000000A3
:100AF30000008040201008000001020408102000BC
:100B03004040404040404000040404040404040006
:100B1300000810204080000000201008040201009B
:100B2300007048080808F00000000030360100009B
:100B3300C030C828E810E0000718272423140B004E
:100B43000000C038E0000000203C230202273820C8
:100B530008F8888888700000203F202020110E00AC
:100B6300C0300808080838000718202020100800A3
:100B730008F808080810E000203F202020100F008C
:100B830008F88888E8081000203F20202320180058
:100B930008F88888E8081000203F200003000000C0
:100BA300C03008080838000007182020221E020061
:100BB30008F808000008F808203F210101213F2020
:100BC300000808F8080800000020203F202000004B
:100BD30000000808F8080800C08080807F0000003B
:100BE30008F888C028180800203F20012638200074
:100BF30008F8080000000000203F202020203000DB
:100C030008F8F800F8F80800203F003F003F2000F4
:100C130008F830C00008F808203F200007183F00FC
:100C2300E01008080810E0000F10202020100F002B
:100C330008F808080808F000203F2101010100001E
:100C4300E01008080810E0000F18242438504F0063
:100C530008F8888888887000203F2000030C302023
:100C630000708808080838000038202121221C0061
:100C7300180808F8080818000000203F20000000AA
:100C830008F808000008F808001F202020201F0093
:100C93000878880000C83808000007380E010000F3
:100CA300F80800F80008F800033C0700073C0300BD
:100CB300081868808068180820302C03032C302023
:100CC3000838C800C83808000000203F2000000092
:100CD30010080808C83808002038262120201800EA
:100CE300000000FE020202000000007F40404000BE
:100CF300000C30C000000000000000010638C000F6
:100D030000020202FE000000004040407F0000009D
:100D130000000402020204000000000000000000C2
:100D230000000000000000008080808080808080C0
:100D330000020204000000000000000000000000A8
:100D430000008080808000000019242222223F209E
:100D530008F8008080000000003F112020110E00E1
:100D63000000008080800000000E11202020110070
:100D7300000000808088F800000E112020103F2022
:100D83000000808080800000001F222222221300A6
:100D9300008080F0888888180020203F20200000F1
:100DA3000000808080808000006B949494936000A6
:100DB30008F8008080800000203F210000203F20B1
:100DC30000809898000000000020203F20200000B1
:100DD300000000809898000000C08080807F0000A1
:100DE30008F8000080808000203F24022D3020007E
:100DF300000808F8000000000020203F2020000029
:100E03008080808080808000203F20003F20003F42
:100E13008080008080800000203F210000203F2050
:100E23000000808080800000001F202020201F0001
:100E3300808000808000000080FFA12020110E0030
:100E43000000008080808000000E112020A0FF8021
:100E5300808080008080800020203F2120000100CE
:100E63000000808080808000003324242424190023
:100E7300008080E0808000000000001F2020000030
:100E83008080000000808000001F202020103F2071
:100E9300808080000080808000010E300806010001
:100EA30080800080008080800F300C030C300F00A6
:100EB30000808000808080000020312E0E312000D1
:100EC300808080000080808080818E701806010001
:100ED30000808080808080000021302C222130001F
:100EE30000000000807C020200000000003F404040
:100EF30000000000FF00000000000000FF000000F1
:100F03000002027C800000000040403F000000001F
:100F130000060101020204040000000000000000BA
:092CA000EF6003D2A522C2A522B7
:092CA900EF6003D2A422C2A422B0
:1029AE00E4900087F0A37420F07B017A0079877F92
:1029BE000212186BE4900087F0A37410F07B017A7A
:1029CE000079877F0212186B7F01122CA0022CA9AE
:0F2C62007F01122CA9122CA01F122CA9022CA04A
:0C000E00E4FF122CA90F122CA0022CA958
:07297C00AC07122C627F780A
:02298300AE079D
:10298500E4FDA8057480088002C313D8FC5EFF121D
:102995002CA97F01122CA01F122CA00DEDB408E26A
:0929A5007F01122CA01F022CA0DE
:102C520012297CE4FF122983AF0412298302000E99
:102B89003EF583E5822DF582E43583F583E493FFF1
:102B990012297C7F40122983AF0412298302000E77
:062B67001475F008A4FD46
:102B6D00AB05EF44B0FF122C52EB54F0C4540F449C
:0C2B7D0010FF122C52EB540FFF022C52E0
:102BC500E4FAAF02E4FD122B6DE4FBE4FF122B994E
:0A2BD5000BEBB480F60AEAB408E83E
:012BDF0022D3
:0D240F0090008FEBF090008DEFF0A3EDF04A
:10241C00EF1425E0FFED122B67E4900090F0900094
:10242C0090E0FDC39408502990008FE0FF3395E0B5
:10243C00FEEFC4F8540FC868FFEEC454F048FE74A5
:10244C00332FF5827407122B89900090E004F080F2
:10245C00CD90008DE025E014FFA3E0122B67E490F3
:10246C000090F0900090E0FDC39408502990008FEC
:10247C00E0FF3395E0FEEFC4F8540FC868FFEEC4DC
:10248C0054F048FE743B2FF5827407122B89900090
:06249C0090E004F080CD89
:0124A2002217
:10280400900087EFF0A3EDF0A3EBF0A3EAF0A3E9C7
:01281400F0D3
:10281500E4A3F0900089E0FBA3E0FAA3E0F9A3E0CC
:10282500F582758300120625FB601B900087E0FF8B
:1028350090008CE0FE900088E02EFD12240F9000A1
:062845008CE004F080CDE0
:01284B00226A
:102530001229AE7FAE122C527FD5122C527F801200
:102540002C527FA8122C527F3F122C527FD3122C78
:1025500052E4FF122C527F40122C527FA1122C52B7
:102560007FC8122C527FDA122C527F12122C527F0B
:1025700081122C527FCF122C527FD9122C527FF114
:10258000122C527FDB122C527F30122C527FA4125D
:102590002C527FA6122C527F8D122C527F14122C9B
:0925A000527FAF122C52022BC530
:102A3E009000877440F0A37402F0E4FCFDA312082A
:102A4E007A90008E7401F0E4A3F0A304F0A3F0A337
:0E2A5E007440F07B017A0079877F010213A695
:0525A9009000BAEDF006
:1025AE00E4A3F0A3EBF0A3EAF0A3E9F09000BAE005
:1025BE00FFA3E0FEC39F5055C2AF900031E0FF90E5
:1025CE000030E0B50704D2AF8043900030E02432F3
:1025DE00F582E43400F583E0FF9000BCE0FBA3E05D
:1025EE00FAA3E0F98E82758300EF12066490003034
:1025FE00E02401FFE433FE7C007D28120686AF0541
:10260E00EDF0D2AF009000BBE004F0809F9000BBD5
:02261E00E0FFDB
:012620002297
:1029DE009000CBEBF0A3EAF0A3E9F0E4FFEFC39D88
:1029EE00501D9000CBE0FBA3E0FAA3E0F98F8275B7
:0F29FE008300120625F5993099FDC2990F80DEEE
:012A0D0022A6
:030023000226981A
:10269800C0E0C0F0C083C082C0D075D000C000C008
:0926A80003C004C005C006C00710
:1026B100309842AB99C298900031E02401FFE43395
:1026C100FE7C007D28120686AF05900030E06D602B
:1026D10024AF03A3E02432F582E43400F583EBF068
:1026E100900031E02401FFE433FE7C007D281206D6
:0526F10086AF05EDF0CD
:1026F600D007D006D005D004D003D000D0D0D082E9
:07270600D083D0F0D0E032D7
:080003008F993099FDC299228A
:102C2A009000887410F0E4900087F07B017A0079B4
:062C3A00877F0302186B06
:0E2C7100EF7D107F037003022AF0122A0E225C
:102C13004C4C20434C204352205252003020203051
:072C230020203020203000CA
:10270D009000887401F0900087F0FB7A0079877F44
:10271D000212186B9000887402F090008714F0FB81
:10272D007A0079877F0212186B9000887404F090FC
:10273D0000877401F0FB7A0079877F0212186B9085
:10274D0000887408F09000877401F0FB7A00798797
:05275D007F0202186B71
:1026210090008FEBF0A3EAF0A3E9F07D017F0212A5
:102631002948E4F933FF90008FE0FBA3E0FAA3E01F
:10264100C98FF01207137D027F02122948E4F93382
:10265100FF900092E0FBA3E0FAA3E0C98FF012071C
:10266100137D047F02122948E4F933FF900095E0BD
:10267100FBA3E0FAA3E0C98FF01207137D087F02E4
:10268100122948E4F933FF900098E0FBA3E0FAA394
:07269100E0C98FF0020713FE
:101BF400E490009CF0A3F0A3F0A3F0A3F0A3F0A35F
:101C0400F0A3F07B0190009204F0A37400F0A3749D
:101C14009EF0A3EBF0A37400F0A374A0F0A3EBF088
:101C2400A37400F0A374A2F07A00799C1226219088
:101C3400009CE07004A3E06401702D90009EE070AD
:101C440004A3E0640170219000A0E07004A3E064A8
:101C54000170159000A2E07004A3E0640170097D96
:101C64004C7C047F031220EF90009CE07002A3E000
:101C7400702690009EE07002A3E0701C9000A0E02B
:101C84007002A3E070129000A2E07002A3E070085A
:101C94007D4C7C04FF1220EF90009CE07004A3E0D4
:101CA4006401702890009EE07002A3E0701E900012
:101CB400A0E07002A3E070149000A2E07004A3E01E
:101CC400640170087DE07C06FF1220EF90009CE028
:101CD4007004A3E06401702B90009EE07002A3E006
:101CE40070219000A0E07004A3E0640170159000DE
:101CF400A2E07004A3E0640170097D287C057F02E2
:101D04001220EF90009CE07004A3E06401702B901B
:101D1400009EE07004A3E06401701F9000A0E070D6
:101D240002A3E070159000A2E07004A3E0640170C7
:101D3400097D287C057F031220EF90009CE070044D
:101D4400A3E06401702B90009EE07004A3E06401A2
:101D5400701F9000A0E07004A3E064017013900071
:101D6400A2E07002A3E070097D287C057F051220A3
:101D7400EF90009CE07002A3E0702D90009EE07054
:101D840004A3E0640170219000A0E07004A3E06467
:101D94000170159000A2E07004A3E0640170097D55
:081DA400287C057F041220EFEA
:011DAC002214
:101A3400E4900087F0A3F0A3F0A3F0A3F0A3F0A335
:101A4400F0A3F07B0190009204F0A37400F0A3745F
:101A540089F0A3EBF0A37400F0A3748BF0A3EBF074
:101A6400A37400F0A3748DF07A0079871226219074
:101A74000087E07004A3E06401702D900089E07099
:101A840004A3E06401702190008BE07004A3E0647F
:101A940001701590008DE07004A3E0640170097D6D
:101AA400967C057F031220EF900087E07002A3E08C
:101AB4007026900089E07002A3E0701C90008BE017
:101AC4007002A3E0701290008DE07002A3E0700831
:101AD4007D0C7C07FF1220EF900087E07004A3E0E8
:101AE40064017028900089E07002A3E0701E9000E9
:101AF4008BE07002A3E0701490008DE07004A3E00A
:101B0400640170087D0C7C07FF1220EF900087E0D1
:101B14007004A3E06401702B900089E07002A3E0DC
:101B2400702190008BE07004A3E0640170159000B4
:101B34008DE07004A3E0640170097D727C067F026D
:101B44001220EF900087E07004A3E06401702B90F2
:101B54000089E07004A3E06401701F90008BE070C2
:101B640002A3E0701590008DE07004A3E06401709E
:101B7400097D727C067F031220EF900087E07004D9
:101B8400A3E06401702B900089E07004A3E0640179
:101B9400701F90008BE07004A3E064017013900048
:101BA4008DE07002A3E070097D727C067F0512202F
:101BB400EF900087E07002A3E07034900089E07039
:101BC40004A3E06401702890008BE07004A3E06437
:101BD40001701C90008DE07004A3E0640170107D1E
:0F1BE400727C067F041220EF7F647E001227B30D
:011BF30022CF
:1024A300E49000A4F0A3F0A3F0A3F0A3F0A3F0A39F
:1024B300F0A3F07B0190009204F0A37400F0A374E6
:1024C300A6F0A3EBF0A37400F0A374A8F0A3EBF0C1
:1024D300A37400F0A374AAF07A0079A412262190C1
:1024E30000A4E07002A3E070207D287C057F021227
:1024F30020EF7F017E001227B37D287C05E4FF12C5
:1025030020EF7F0A7E000227B37BFF7A2C79137DAD
:10251300017F011228047BFF7A2C791F7D017F0242
:0C2523001228047D4C7C047F031220EF82
:01252F002289
:102BE00025640025302E3166434D000000000000B2
:0B2BF0000000000000000000000000DA
:102AC5009000D27440F09000D17403F07B017A003D
:102AD50079D17F0112186B9000D27401F09000D16A
:0B2AE500F0FB7A0079D17F8002186BB3
:102BFB00E49000ADF0A37448F0E49000B0F07B01DA
:082C0B007A0079ACFF021F50B2
:10166A00122C9690005A12087A785E7C007D017BD3
:10167A00FF7A2B79EB7E007F101205E690006E123E
:10168A000886000000009000C3E0F8A3E0F9A3E098
:10169A00FAA3E0FB90005AE0FCA3E0FDA3E0FEA35E
:1016AA00E0C39BFFEE9AFEED99FDEC98FCE47B64A7
:1016BA00FAF9F8D312080E4008E4FFFE7D807CBFD9
:1016CA002290005AE0FCA3E0FDA3E0FEA3E0FF9015
:1016DA0000C312087A90000374FFF0A3742BF0A3DE
:1016EA0074E0F090005AE0FCA3E0FDA3E0FEA3E062
:1016FA00FF90000612087A7B017A00795E120F8841
:10170A007B017A00795E7D017F021228047D407F89
:10171A0001122AF07F017E001227B37D407F011259
:10172A002A0E7D017F801229484057122C9690007C
:10173A005A12087A9000C3E0F8A3E0F9A3E0FAA3EA
:10174A00E0FB90005AE0FCA3E0FDA3E0FEA3E0C3A7
:10175A009BFFEE9AFEED99FDEC98FCE47B64FAF9A6
:10176A00F8C312080E50BB90005AE0FCA3E0FDA398
:10177A00E0FEA3E0FF9000C312087AE4FFFEFD7CBE
:10178A00C022E4F5F9F5E9D2DE7D017F801229480D
:10179A005058122C9690005A12087A9000C3E0F81A
:1017AA00A3E0F9A3E0FAA3E0FB90005AE0FCA3E06F
:1017BA00FDA3E0FEA3E0C39BFFEE9AFEED99FDECCC
:1017CA0098FCE47B64FAF9F8C312080E50BB900047
:1017DA005AE0FCA3E0FDA3E0FEA3E0FF9000C312E1
:1017EA00087AE4FFFE7D407CC022AFF9EFFEADE946
:1017FA00EDFFE4F5F9F5E9C2DEAD07AC061201E941
:10180A007B727A1C7997783C12003EE4FBFAF978ED
:10181A004012014790006E12087A90000374FFF09C
:10182A00A3742BF0A374E3F090006EE0FCA3E0FD38
:10183A00A3E0FEA3E0FF90000612087A7B017A007B
:10184A00795E120F887B017A00795E7D017F011231
:10185A00280490006EE0FCA3E0FDA3E0FEA3E0FFF5
:01186A00225B
:10002600463A31004C3A3120463A30004C3A3020BC
:04003600463A300016
:102A99009000887440F09000877401F0FB7A007907
:102AA900877F0212186B9000887480F090008774F9
:0C2AB90001F0FB7A0079877F0202186BA5
:1028D3009000B4EBF0A3EAF0A3E9F07D407F02128D
:1028E3002948E4F933FF9000B4E0FBA3E0FAA3E046
:1028F300C98FF01207137D807F02122948E4F93350
:10290300FF9000B7E0FBA3E0FAA3E0C98FF0020752
:0129130013B0
:102200009000C7E4F0A304F0A3E4F0A304F090006E
:10221000B77401F0A37400F0A374C9F07B017A00D5
:1022200079C71228D39000C9E07002A3E070257B23
:10223000FF7A0079267D017F011228047D987C08B1
:102240007F051220EF7FC27E011227B37D987C08A4
:102250007F06805D9000C7E07002A3E070219000CF
:10226000C9E07004A3E0640170157BFF7A00792A4D
:102270007D017F011228047DE07C067F038032907F
:1022800000C7E07004A3E0640170299000C9E07009
:1022900004A3E06401701D7BFF7A0079327D017F29
:1022A000011228047F647E001227B37DE07C067F44
:0E22B000021220EF7F327E001227B302220EB0
:10186B00EFD3940540057E007F012212060CFDD3B9
:10187B00940340057E007F0222EF7041ED700B90C8
:10188B000001120625F45293529412060CB4010B6C
:10189B009000011206254293F4529412060CFEB4EA
:1018AB00020A90000112062542934294EEB4030DF6
:1018BB00900001120625FEF45293EE4294EF640160
:1018CB00704312060CFE700B900001120625F452A9
:1018DB00915292EEB4010B9000011206254291F445
:1018EB00529212060CB4020A900001120625429184
:1018FB00429212060CB4030D900001120625FEF461
:10190B005291EE4292EF6402704312060CFE700B82
:10191B00900001120625F452955296EEB4010B90ED
:10192B0000011206254295F4529612060CB4020AD7
:10193B009000011206254295429612060CB4030D37
:10194B00900001120625FEF45295EE4296EF6403C9
:10195B00704312060CFE700B900001120625F45218
:10196B00B152B2EEB4010B90000112062542B1F454
:10197B0052B212060CB4020A90000112062542B1B3
:10198B0042B212060CB4030D900001120625FEF4B0
:10199B0052B1EE42B2EF6404704312060CFE700BB0
:1019AB00900001120625F452B352B4EEB4010B9021
:1019BB00000112062542B3F452B412060CB4020A0B
:1019CB0090000112062542B342B412060CB4030D6B
:1019DB00900001120625FEF452B3EE42B4EF6405FB
:1019EB00704312060CFF700B900001120625F45287
:1019FB00C952CAEFB4010B90000112062542C9F47B
:101A0B0052CA12060CB4020A90000112062542C9F2
:101A1B0042CA12060CB4030D900001120625FFF406
:091A2B0052C9EF42CAE4FEFF2299
:102AF000EF7003ED4280EFB40103ED4290EFB402BA
:102B000003ED42A0EFB40303ED42B0EFB40403EDD4
:0A2B100042C0EFB40503ED42C822F5
:102A0E00EF7004EDF45280EFB40104EDF45290EF48
:102A1E00B40204EDF452A0EFB40304EDF452B0EF9F
:102A2E00B40404EDF452C0EFB40504EDF452C82220
:10294800EF7004AE808026EFB40104AE90801EEFD5
:10295800B40204AEA08016EFB40304AEB0800EEF4C
:10296800B40404AEC08006EFB40507AEC8EE5D241B
:03297800FF22C378
:01297B002239
:022CC300F8CD4A
:102A6C009000877401F0A3F0A3F0A3F0E4A3F0901E
:102A7C002CC393FF74019390008CCFF0A3EFF0A3C1
:0D2A8C007401F0FB7A007987E4FF021DADB4
:03000B0002276267
:10276200C0E0C0F0C083C082C0D075D000C000C03D
:1027720004C005C006C007902CC3E493FE74019305
:10278200F58AEEF58C780D120832EF2401FFE43E53
:10279200FEE43DFDE43CFC780D12086ED007D00645
:1027A200D005D004D000D0D0D082D083D0F0D0E0F9
:0127B20032F4
:092C9600C2AF780D120832D2AF72
:012C9F002212
:04001E007F03DFFE7F
:0100220022BB
:072CBB000000007F34DFFE82
:012CC20022EF
:082CB2007F037E1ADEFEDFFC49
:012CBA0022F7
:10284C00AD07AC06C3ED9464EC9400400D122CB2B1
:10285C00749C2DFD74FF3CFC80EAC3ED940AEC944F
:10286C0000400D122CBB74F62DFD74FF3CFC80EA6D
:10287C00D3ED9400EC9400400A12001EED1D70F094
:04288C001C80ED229D
:0827B30090008FEEF0A3EFF09F
:1027BB00122C9690009112087A122C96900095127A
:1027CB00087A900091E0F8A3E0F9A3E0FAA3E0FB0C
:1027DB00A3E0FCA3E0FDA3E0FEA3E0C39BFBEE9A0A
:1027EB00FAED99F9EC98F890008FE0FEA3E0FFE486
:0827FB00FCFDC312080E40C1F1
:0128030022B2
:101DAD00AD07EDD3940340057E007F0122ED600366
:101DBD00021E43C28C900002120625B40104D2A962
:101DCD008002C2A9900001120625B40104D2B98087
:101DDD0002C2B912060CFCD394034003021F4BE55B
:101DED008954FC4CF589900003120625FFB40103BC
:101DFD00538E7FEF7003438E80EFB4020543890449
:101E0D0080035389FB900004120625B40105438F0E
:101E1D00018003538FFE9000051206DBE5F0F58C73
:101E2D009000051206DBF58A900007120625B40115
:101E3D0002D28C021F47ED64016003021ED2C28ED6
:101E4D00900002120625B40104D2AB8002C2AB9001
:101E5D000001120625B40104D2BB8002C2BB1206DA
:101E6D000CFCC394034003021F4BECC454F0FFE57C
:101E7D008954CF4FF589900003120625FFB4010355
:101E8D00538EBFEF7003438E40EFB402054389407C
:101E9D0080035389BF900004120625B40105438FBA
:101EAD00028003538FFD9000051206DBE5F0F58DE2
:101EBD009000051206DBF58B900007120625B40184
:101ECD0002D28E8075ED64027074538EEF90000215
:101EDD00120625B4010543AF04800353AFFB9000F8
:101EED0003120625FDD3940240028052EDB4010386
:101EFD00538EFB9000031206257003438E04900051
:101F0D0003120625B40205438E088003538EF79005
:101F1D000004120625B40105438F048003538FFB83
:101F2D009000051206DBFDACF0ECF5D68DD79000D8
:101F3D0007120625B40103438E10E4FEFF227E0036
:031F4D007F0222EE
:1022BE00EF7034D3ED9450EC940F40047C0F7D50AE
:1022CE00C3ED9450EC940050047C007D50C2DE901F
:1022DE00007BECF0A3EDF0C374A09D900076F0743B
:1022EE000F9C9000758073EF64017034D3ED946889
:1022FE00EC940B40047C0B7D68C3ED9450EC940081
:10230E0050047C007D50C2DE90007DECF0A3EDF019
:10231E00C374B89D900078F0740B9C900077803A4F
:10232E00EF64027038D3ED9480EC940740047C0780
:10233E007D80C3ED9450EC940050047C007D50C21F
:10234E00DE90007FECF0A3EDF0AE04FFC374D09FDF
:0E235E0090007AF074079E900079F0D2DE2293
:101F50009000CEEBF0A3EAF0A3E9F0AD07EDD39447
:101F60000340030220EEED6403704CC2DEF5F9F588
:101F7000E99000CEE0FBA3E0FAA3E0F912060CFF23
:101F8000E5A254CF4FF5A2900001120625FFE5D936
:101F900054F14FF5D99000041206255401FFE5D9FC
:101FA00054FE4FF5D9900005120625B40104D2BFA6
:101FB0008002C2BFD2DE229000CEE0FBA3E0FAA3F3
:101FC000E02404F9E43AFA12060C54311206529055
:101FD00000CEE0FBA3E0FAA3E0F990000212062590
:101FE000C39448400FE92404F9E43AFA12060C5469
:101FF000CF120652ED704F9000CEE0FBA3E0FAA3A3
:10200000E0F9900004120625FF900002120625FE5A
:102010004FF5DA900003120625FFE5F2543F4FF525
:10202000F29000061206DBFBAAF090007BEAF0A318
:10203000EBF0C209900072EEF0900081EAF0A3EBA1
:10204000F0F5EAEAF5FAED6401704F9000CEE0FB9E
:10205000A3E0FAA3E0F9900004120625FF90000225
:10206000120625FE4FF5DB900003120625FFE5F36F
:10207000543F4FF5F39000061206DBFBAAF09000E8
:102080007DEAF0A3EBF0C20A900073EEF0900083BB
:10209000EAF0A3EBF0F5EBEAF5FBED6402704F908C
:1020A00000CEE0FBA3E0FAA3E0F9900004120625BD
:1020B000FF900002120625FE4FF5DC900003120689
:1020C00025FFE5F4543F4FF5F49000061206DBFDC2
:1020D000ACF090007FECF0A3EDF0C20B900074EE3A
:0F20E000F0900085ECF0A3EDF0F5ECECF5FC22B0
:03003B0002236C31
:10236C00C0E0C083C082C0D075D000C006C00730AA
:10237C00D82AC2D830A50590007B8003900075E068
:10238C00FEA3E0FF900082E02FF0900081E03EF091
:10239C00900081E0FEA3E0F5EAEEF5FA30D92AC20E
:1023AC00D930A60590007D8003900077E0FEA3E075
:1023BC00FF900084E02FF0900083E03EF0900083CB
:1023CC00E0FEA3E0F5EBEEF5FB30DA2AC2DA30A73B
:1023DC000590007F8003900079E0FEA3E0FF900061
:1023EC0086E02FF0900085E03EF0900085E0FEA3A3
:1023FC00E0F5ECEEF5FCD007D006D0D0D082D0833F
:03240C00D0E032EB
:1013A600900095EBF0A3EAF0A3E9F0900094EFF03B
:1013B6006401600302155FA3E0FBA3E0FAA3E0F972
:1013C60012060CD394C040037F022290000A120634
:1013D60025B40104D2BC8002C2BC12060CFFE598FB
:1013E600543F4FF598EF64C06008EF644060030215
:1013F60014D990000212083E7F007E607D547C0066
:1014060012076E90009812087AE4FFFE7D01FC90A8
:101416000098E0F8A3E0F9A3E0FAA3E0FBC3120802
:101426000E40037F0222900098E0F8A3E0F9A3E0C3
:10143600FAA3E0FBC3E49BFFE49AFE740199FDE482
:1014460098FC90009812087A900095E0FBA3E0FAC9
:10145600A3E0F9900001120625FB64017038C28EE4
:10146600538EFE5389BF5389CF438E40900098E038
:10147600FCA3E0FDA3E0FEA3E0FF780812081F8F9F
:101486008D900098A3A3A3E0F58BC2AB5389BF53FD
:101496008FFDD28E8076EB64027035538EEF438ECD
:1014A60001538EF7438E04900098E0FCA3E0FDA361
:1014B600E0FEA3E0FF780812081F8FD6900098A3DD
:1014C600A3A3E0F5D753AFFB538EF7438E10803CB2
:1014D6007F0222900095E0FBA3E0FAA3E0F9120652
:1014E6000CFF7013900008120625B40105438E20E8
:1014F600801A538EDF8015EFB48011900008120613
:1015060025B40105438780800353877F900095E0CB
:10151600FBA3E0FAA3E0F9900009120625B4010442
:10152600D2AC8002C2AC900007120625B40104D2E8
:101536009C8002C29C90000B12062554C0FFE5A2B7
:10154600543F4FF5A290000C120625B401054397AF
:101556001080035397EF7F0022900094E0640260AE
:1015660003021667A3E0FBA3E0FAA3E0F912060C58
:10157600FF64C06008EF6440600302162790000A0B
:10158600120625B4010543B501800353B5FE1206C4
:101596000CB4C005439A808003539A7F90000212D0
:1015A600083E7F007E607D547C0012076E90009896
:1015B60012087AE4FFFE7D01FC900098E0F8A3E0B3
:1015C600F9A3E0FAA3E0FBC312080E40037F022250
:1015D600900098E0F8A3E0F9A3E0FAA3E0FBC3E4E7
:1015E6009BFFE49AFE740199FDE498FC9000981222
:1015F600087A538EEF538EF7438E04900098E0FCE2
:10160600A3E0FDA3E0FEA3E0FF780812081F8FD633
:10161600900098A3A3A3E0F5D753AFFB438E1080A9
:10162600037F0222900095E0FBA3E0FAA3E0F99085
:101636000009120625B4010543AF01800353AFFE2E
:10164600900007120625B40105439A108003539AA9
:10165600EF90000B1206255401FFE5BA54FE4FF534
:03166600BA7F0048
:01166900225E
:10003E00EC4D6011E8497017ED33EC3304600DE4BC
:10004E00FCFFFEFD22E933E8330470F8020257127A
:10005E00022258046009E4CC24815006285009027B
:10006E00026128400302025EC0E0EB4A7044B98090
:10007E0006D0E0FB02024DEF4E701CBD8008EBFF78
:10008E00EAFEE9FD80EBE98DF0A4FEE5F002012722
:10009E00E9CDF9EAFEEBFFEF89F0A4FCE5F0CE899D
:1000AE00F0A42EFFE435F0CD89F0A42DFEE435F05A
:1000BE008067EF4E7005BD80D780C3EF8BF0A4AC88
:1000CE00F0EE8BF0A42CFCE435F0F8EF8AF0A42CC3
:1000DE00E5F038FCE433CB8DF0A42CFCE5F03BF8D6
:1000EE00EE8AF0A42CFCE5F038F8E433CF89F0A4C6
:1000FE002CFCE5F038CF3400CE89F0A42FFFE5F0CC
:10010E003EFEE433C98DF0A42EFEE5F039CD8AF023
:10011E00A42FFFE5F03EFEE43DFD33D0E0FB50079B
:10012E000BBB000F020261EC2CFCEF33FFEE33FE33
:06013E00ED33FD02023961
:10014400020261EC5D046005E85904700302025781
:10015400120222580460F6EC4860F2EC7004FDFED2
:10016400FF22C860DB2481C85009C398600250068E
:1001740002025E9850CAF582E9294B4A7005AB82A7
:1001840002024D75F0007C1A7880C3EF9BEE9AED65
:1001940099400DC3EF9BFFEE9AFEED99FDE842F006
:1001A400DC23ACF0D0E0FFD0E0FED0E0FDAB822059
:1001B400E7101BEB60BAEC2CFCEF33FFEE33FEEDE3
:1001C40033FD020239E803F830E705C0F075F000AA
:1001D400EF2FFFEE33FEED33FD40B830E7C280AAC7
:1001E40075F020800E75F010800575F0087D007E96
:1001F400007F003392D530D503120800EC33401051
:10020400EF33FFEE33FEED33FDEC33FCD5F0ED229E
:0E021400E5F0247EA2D513CC92E7CDCEFF22DA
:100F2300E5082403F582E43400F583E00508229004
:100F33000000300703900003E475F0011208B702C4
:100F4300060C2000E97F2ED2008018EF540F249066
:100F5300D43440D4FF30040BEF24BFB41A00500341
:100F63002461FFE50960021509050CE50C70020513
:100F73000B30070E900000E475F0011208B7EF0282
:100F830006520200037403D2078003E4C207F50884
:100F93009000001208CEE4F509F50BF50CE50960A5
:100FA300077F20120F6680F5750AFFC201C200C2D7
:100FB30002C203C205C206C208120F32FF700D300F
:100FC30007057F00120F77AF0CAE0B22B4255FC26B
:100FD300D5C204120F32FF24D0B40A00501A75F0A0
:100FE3000A780930D50508B6FF0106C6A426F620FF
:100FF300D5047002D20380D924CFB41A00EF500471
:10100300C2E5D204021269D20180C6D20080C0D2E6
:101013000280BCD2D580BAD20580B47F20120F667D
:101023002002077401B5090040F1120F23FF120FCC
:1010330066020FA0D208D2068095120F23FB120F6F
:1010430023FA120F23F94A4B700679677A137BFF51
:1010530020022EE509602A7E008E82758300120627
:101063002560060EEE650A70F0C2D5EBC0E0EAC05B
:10107300E0E9C0E0EE1212CAD0E0F9D0E0FAD0E025
:10108300FB12060CFF60AAEBC0E0EAC0E0E9C0E097
:10109300120F66D0E02401F9D0E03400FAD0E0FB6F
:1010A300E50A0460DCD50AD98087D20280A2121235
:1010B300AC60F7E50A70010412026CA90A600DE541
:1010C3000A600914F50A121354EF60F3EA30E702D9
:1010D300F404C3995079EAF4250A0430E701E404DF
:1010E300F50A800D1212AC60C1EA050A250A120244
:1010F3006CEA90002FF030E701E4250A04D50A04D6
:10110300200501141212CAE4C0E012135490002FF8
:10111300E0601320E70714F0120F4E802204F0D092
:10112300E014C0E07F00120F4EE50A6007120F457E
:10113300150A800B300503120F45D0E0020FA0D033
:10114300E00480C41212AC609EE50A0412026C90A3
:10115300002FEAF0E50A20050260010424041212BC
:01116300CAC1
:1011640074FF04C0E0121354120F4EE50A20050266
:101174006003120F45D0E0B50AE87F45120F58907E
:10118400002FE07F2B30E7047F2DF404C0E0120F22
:1011940066D0E075F00A84C0F0120F4FD0E0120F51
:1011A4004F020FA0791080027908C206C208800895
:1011B400D2D5790A8004790AC2D5E50A047002F509
:1011C4000AE4FAFDFEFF120F23FC7B082001131230
:1011D4000F23FD7B1030000A120F23FE120F23FF92
:1011E4007B20EC3382D592D55013C3E43000069FA4
:1011F400FFE49EFEE42001039DFDE49CFCE4CBF8A7
:10120400C201EC700CCFCECDCCE824F8F870F3809A
:1012140017C3EF33FFEE33FEED33FDEC33FCEB335A
:10122400FB994002FB0FD8E9EB300105F8D0E0C48C
:1012340048B201C0E00AEC4D4E4F78207B0070C2EA
:10124400EAB50A0040BCC0E01212CCD0F0D0E020D5
:101254000104C4C0E0C4B201C0F0120F4FD0F0D5F5
:10126400F0EB020FA01208D7103D5311A858100E2E
:101274004C100A4211AC4F11B44411B44910234329
:1012840011BA5510E74611474510B147138750105E
:10129400122D10162E10392B101A2310372013700C
:1012A4002A0FD24800001031E50AB4FF03750A067C
:1012B400120F23FC120F23FD120F23FE120F23FF24
:1012C4009000280202A9790AA2D520031430050946
:1012D400B910020404B9080104A2D5200602500181
:1012E400042002689202B509005034C0E07F203027
:1012F40003197F30A20272067205500F121323C223
:1013040002C206C205C2087F30800F300503E9C05F
:10131400E0120F66300503D0E0F9D0E0B509CC3017
:1013240005177F30B9100C120F667F583004077F01
:10133400788003B90803120F663002057F2D020F6F
:10134400667F202008F87F2B2006F322920280CFAC
:101354007F00B40700500B2428F582E43400F583A1
:10136400E0FF22286E756C6C2900D201120F233025
:1013740001F8C201780930D50108F6020FD22D50C8
:10138400434958120F232403B405004001E4901389
:101394008293120F57743A120F57D203750904023D
:0213A40011A88E
:10022200E9D2E7C933E833F892D5EDD2E7CD33EC22
:0702320033FC5002B2D5229B
:10023900EC30E7100FBF000C0EBE00080DBD000426
:100249000BEB6014A2D5EB13FCED92E7FD2274FFD2
:10025900FCFDFEFF22E480F8A2D574FF13FC7D802B
:03026900E480EF3F
:10026C00F920E73624F950037907E4F42402FBE57E
:10027C0082158270021583DBF6E024FB501BE960CB
:10028C0014E4F0E582158270021583E004F0B40AE0
:0D029C0008E4F0D9EE7401F00A22C2D52268
:1002A900ED33EC3392D5FA602AB4FF33EDC2E77B24
:1002B900FF60067A0279CEE4227A0279D720D50442
:1002C9007A0279D2224E614E002B494E46002D49C1
:1002D9004E4600E47A08F0A3DAFC7B00740722C0DA
:1002E90083C082ECC0E0EDC0E0EEC0E0EFC0E0EA20
:1002F90075F010A4CAABF075F04DA42BFBE435F0F2
:10030900FCEA2410FAEB34C5FBEC34D9FCEDC2E766
:10031900FF75F056A4F42411C5F0F434C58FF0A488
:100329002AE5F03BE43CF020E7141204D6D0E0FFC4
:10033900D0E0FED0E0FDD0E0FC1201478014F404C7
:100349001204D6D0E0FFD0E0FED0E0FDD0E0FC12F0
:10035900003ED082D083E0FAEDD2E7CD33EC3324EE
:1003690082FBE4C3CF33CFCE33CECD33CD33DBF3F2
:100379007B0775F00A846004F0A31B0AE5F0F0A37B
:100389008FF0740AA4FFACF08EF0740AA42CFEACB2
:10039900F050010C8DF0740AA42CFDE435F0F0A3A3
:0503A900DBDE740722F9
:1003AE00020257E86480F8E933E83360110460F024
:1003BE00ED33EC337009E8FCE9FDEAFEEBFF2204B5
:1003CE0060DED3EB9FEA9EE99DE8C2E78CF0C2F7B0
:1003DE0095F0400CE8CCF8E9CDF9EACEFAEBCFFB7C
:1003EE0012022285D0F05804700320D5B3E80470B1
:1003FE00075002B2D502026192D5EC0460F7E4CC4C
:10040E00C0E0C398F8603B94186008400DD0E0FB44
:10041E00020239E4FBFAC9FC8028E830E406E4C99C
:10042E00FBE4CAFCE830E305E4C9CACBFCE8540798
:10043E006010F8C3E913F9EA13FAEB13FBEC13FCA3
:10044E00D8F130F52FC3E49CFCEF9BFFEE9AFEED46
:10045E0099FDD0E0FBEF4E4D4C701222DB030202F1
:10046E005EEC2CFCEF33FFEE33FEED33FDED30E7AB
:10047E00EB020239EF2BFFEE3AFEED39FDD0E0FB39
:10048E0050130BBB0003020261ED13FDEE13FEEFE2
:08049E0013FFEC13FC0202390C
:1004A6003F8000004120000042C80000447A00005E
:1004B600461C400047C35000497424004B189680E0
:1004C6004CBEBC205A0E1BCA6753C21C749DC5AED7
:1004D600FB60065407601C2323120504EB543860A6
:1004E600091204F01204FF12003EECF8EDF9EEFAE0
:1004F600EFCB22EB1204FF80F1543803241C900446
:10050600A6FE93FC0EEE93FD0EEE930ECE93FF2207
:03000000022C7F50
:0C2C7F00787FE4F6D8FD758121022C401E
:10051600E709F608DFFA8046E709F208DFFA803EC7
:1005260088828C83E709F0A3DFFA8032E309F608B4
:10053600DFFA8078E309F208DFFA807088828C831C
:10054600E309F0A3DFFA806489828A83E0A3F608D0
:10055600DFFA805889828A83E0A3F208DFFA804CAA
:1005660080D280FA80C680D4806980F28033801081
:1005760080A680EA809A80A880DA80E280CA8033EA
:1005860089828A83ECFAE493A3C8C582C8CCC58362
:10059600CCF0A3C8C582C8CCC583CCDFE9DEE78032
:1005A6000D89828A83E493A3F608DFF9ECFAA9F0B1
:1005B600EDFB2289828A83ECFAE0A3C8C582C8CC07
:1005C600C583CCF0A3C8C582C8CCC583CCDFEADE20
:1005D600E880DB89828A83E493A3F208DFF980CC82
:1005E60088F0EF60010E4E60C388F0ED2402B4047B
:1005F6000050B9F582EB2402B4040050AF23234522
:06060600822390056673DB
:10060C00BB010689828A83E0225002E722BBFE02EC
:09061C00E32289828A83E493221F
:10062500BB010CE58229F582E5833AF583E022508A
:1006350006E92582F8E622BBFE06E92582F8E222D4
:0D064500E58229F582E5833AF583E49322EE
:10065200BB010689828A83F0225002F722BBFE0187
:02066200F32281
:10066400F8BB010DE58229F582E5833AF583E8F0CC
:10067400225006E92582C8F622BBFE05E92582C878
:02068400F22260
:10068600BC000BBE0029EF8DF084FFADF022E4CC58
:10069600F875F008EF2FFFEE33FEEC33FCEE9DEC21
:1006A600984005FCEE9DFE0FD5F0E9E4CEFD22ED67
:1006B600F8F5F0EE8420D21CFEADF075F008EF2FB1
:1006C600FFED33FD4007985006D5F0F222C398FDA2
:0506D6000FD5F0EA223F
:1006DB00BB0110E58229F582E5833AF583E0F5F05D
:1006EB00A3E0225009E92582F886F008E622BBFE3A
:1006FB000AE92582F8E2F5F008E222E5832AF58380
:08070B00E993F5F0A3E9932244
:10071300BB010A89828A83F0E5F0A3F0225006F731
:0F07230009A7F01922BBFE06F3E5F009F319222E
:1007320075F008758200EF2FFFEE33FECD33CDCC7E
:1007420033CCC58233C5829BED9AEC99E582984001
:100752000CF582EE9BFEED9AFDEC99FC0FD5F0D6DE
:10076200E4CEFBE4CDFAE4CCF9A88222B800C1B908
:100772000059BA002DEC8BF084CFCECDFCE5F0CB46
:10078200F97818EF2FFFEE33FEED33FDEC33FCEB7F
:1007920033FB10D703994004EB99FB0FD8E5E4F93A
:1007A200FA227818EF2FFFEE33FEED33FDEC33FC27
:1007B200C933C910D7059BE99A4007EC9BFCE99A1B
:1007C200F90FD8E0E4C9FAE4CCFB2275F010EF2F60
:1007D200FFEE33FEED33FDCC33CCC833C810D70760
:1007E2009BEC9AE899400AED9BFDEC9AFCE899F89B
:0E07F2000FD5F0DAE4CDFBE4CCFAE4C8F9222E
:0E080000C3E49FFFE49EFEE49DFDE49CFC2209
:10080E00EB9FF5F0EA9E42F0E99D42F0E89C45F040
:01081E0022B7
:10081F00E8600FECC313FCED13FDEE13FEEF13FFB7
:03082F00D8F122DB
:0C083200E6FC08E6FD08E6FE08E6FF22F2
:10083E00BB010DE58229F582E5833AF58302090AAB
:10084E005007E92582F80208FDBBFE07E92582F86C
:10085E00020916E58229F582E5833AF5830209231A
:0C086E00ECF608EDF608EEF608EFF622B6
:0C087A00ECF0A3EDF0A3EEF0A3EFF022F1
:10088600A8828583F0D083D08212089D12089D121B
:10089600089D12089DE473E493A3C583C5F0C58340
:1008A600C8C582C8F0A3C583C5F0C583C8C582C8BC
:0108B600221F
:1008B700F8E0FBA3A3E0F925F0F0E58215827002CA
:0708C7001583E0FA38F0226E
:0908CE00EBF0A3EAF0A3E9F0222B
:1008D700D083D082F8E4937012740193700DA3A3B0
:1008E70093F8740193F5828883E4737402936860C4
:0608F700EFA3A3A380DFC4
:0D08FD00E6FB08E6F908E6FA08E6CBF8226B
:0C090A00E0F8A3E0F9A3E0FAA3E0FB2270
:0D091600E2FB08E2F908E2FA08E2CBF82261
:10092300E493F8740193F9740293FA740393FB222A
:00000001FF
