:0B316700496E6974696E672E2E2E0001
:102DC700122F227F017E00122C66122FD01229E3C8
:102DD7007BFF7A3179677D017F01122CB77F807E77
:102DE70025122EF412311812305F122BC0122F4FFA
:072DF7007F647E00022C66E0
:1030D000122DC77FF47E01122C6612309A12166AE6
:0930E0007FC87E00122C6680F40A
:1009330000000000000000000000000000000000B4
:10094300000000F800000000000000333000000049
:1009530000100C06100C0600000000000000000050
:1009630040C07840C0784000043F04043F040400C2
:10097300007088FC08300000001820FF211E0000D2
:10098300F008F000E018000000211C031E211E00E7
:1009930000F00888700000001E212324192721106D
:1009A30010160E0000000000000000000000000010
:1009B300000000E0180402000000000718204000B7
:1009C30000020418E00000000040201807000000A7
:1009D300404080F0804040000202010F010202000B
:1009E300000000F0000000000101011F01010100EF
:1009F300000000000000000080B070000000000054
:100A030000000000000000000001010101010101DC
:100A13000000000000000000003030000000000073
:100A23000000000080601804006018060100000048
:100A330000E010080810E000000F102020100F0045
:100A4300001010F8000000000020203F20200000CC
:100A53000070080808887000003028242221300024
:100A630000300888884830000018202020110E002C
:100A73000000C02010F8000000070424243F2400D5
:100A830000F80888880808000019212020110E00AA
:100A930000E0108888180000000F112020110E00BC
:100AA30000380808C83808000000003F00000000B4
:100AB3000070880808887000001C222121221C0075
:100AC30000E010080810E0000000312222110F009E
:100AD300000000C0C0000000000000303000000033
:100AE30000000080000000000000806000000000A3
:100AF30000008040201008000001020408102000BC
:100B03004040404040404000040404040404040006
:100B1300000810204080000000201008040201009B
:100B2300007048080808F00000000030360100009B
:100B3300C030C828E810E0000718272423140B004E
:100B43000000C038E0000000203C230202273820C8
:100B530008F8888888700000203F202020110E00AC
:100B6300C0300808080838000718202020100800A3
:100B730008F808080810E000203F202020100F008C
:100B830008F88888E8081000203F20202320180058
:100B930008F88888E8081000203F200003000000C0
:100BA300C03008080838000007182020221E020061
:100BB30008F808000008F808203F210101213F2020
:100BC300000808F8080800000020203F202000004B
:100BD30000000808F8080800C08080807F0000003B
:100BE30008F888C028180800203F20012638200074
:100BF30008F8080000000000203F202020203000DB
:100C030008F8F800F8F80800203F003F003F2000F4
:100C130008F830C00008F808203F200007183F00FC
:100C2300E01008080810E0000F10202020100F002B
:100C330008F808080808F000203F2101010100001E
:100C4300E01008080810E0000F18242438504F0063
:100C530008F8888888887000203F2000030C302023
:100C630000708808080838000038202121221C0061
:100C7300180808F8080818000000203F20000000AA
:100C830008F808000008F808001F202020201F0093
:100C93000878880000C83808000007380E010000F3
:100CA300F80800F80008F800033C0700073C0300BD
:100CB300081868808068180820302C03032C302023
:100CC3000838C800C83808000000203F2000000092
:100CD30010080808C83808002038262120201800EA
:100CE300000000FE020202000000007F40404000BE
:100CF300000C30C000000000000000010638C000F6
:100D030000020202FE000000004040407F0000009D
:100D130000000402020204000000000000000000C2
:100D230000000000000000008080808080808080C0
:100D330000020204000000000000000000000000A8
:100D430000008080808000000019242222223F209E
:100D530008F8008080000000003F112020110E00E1
:100D63000000008080800000000E11202020110070
:100D7300000000808088F800000E112020103F2022
:100D83000000808080800000001F222222221300A6
:100D9300008080F0888888180020203F20200000F1
:100DA3000000808080808000006B949494936000A6
:100DB30008F8008080800000203F210000203F20B1
:100DC30000809898000000000020203F20200000B1
:100DD300000000809898000000C08080807F0000A1
:100DE30008F8000080808000203F24022D3020007E
:100DF300000808F8000000000020203F2020000029
:100E03008080808080808000203F20003F20003F42
:100E13008080008080800000203F210000203F2050
:100E23000000808080800000001F202020201F0001
:100E3300808000808000000080FFA12020110E0030
:100E43000000008080808000000E112020A0FF8021
:100E5300808080008080800020203F2120000100CE
:100E63000000808080808000003324242424190023
:100E7300008080E0808000000000001F2020000030
:100E83008080000000808000001F202020103F2071
:100E9300808080000080808000010E300806010001
:100EA30080800080008080800F300C030C300F00A6
:100EB30000808000808080000020312E0E312000D1
:100EC300808080000080808080818E701806010001
:100ED30000808080808080000021302C222130001F
:100EE30000000000807C020200000000003F404040
:100EF30000000000FF00000000000000FF000000F1
:100F03000002027C800000000040403F000000001F
:100F130000060101020204040000000000000000BA
:09318600EF6003D2A522C2A522CC
:09318F00EF6003D2A422C2A422C5
:102E6400E4900030F0A37420F07B017A0079307F85
:102E740002121A78E4900030F0A37410F07B017A07
:102E84000079307F02121A787F0112318602318F65
:0F313E007F0112318F1231861F12318F023186BD
:0C315B00E4FF12318F0F12318602318F19
:072E3200AC0712313E7F786E
:022E3900AE07E2
:102E3B00E4FDA8057480088002C313D8FC5EFF1262
:102E4B00318F7F011231861F1231860DEDB408E2EE
:092E5B007F011231861F0231864D
:10312E00122E32E4FF122E39AF04122E3902315B09
:10303F003EF583E5822DF582E43583F583E493FF36
:10304F00122E327F40122E39AF04122E3902315B0D
:06301D001475F008A4FD8B
:10302300AB05EF44B0FF12312EEB54F0C4540F4400
:0C30330010FF12312EEB540FFF02312E63
:10309A00E4FAAF02E4FD123023E4FBE4FF12304FFE
:0A30AA000BEBB480F60AEAB408E864
:0130B40022F9
:0D28360090003CEBF090003AEFF0A3EDF0C5
:10284300EF1425E0FFED12301DE490003DF0900001
:102853003DE0FDC39408502990003CE0FF3395E030
:10286300FEEFC4F8540FC868FFEEC454F048FE747A
:10287300332FF582740712303F90003DE004F0805F
:10288300CD90003AE025E014FFA3E012301DE49060
:10289300003DF090003DE0FDC39408502990003CBA
:1028A300E0FF3395E0FEEFC4F8540FC868FFEEC4B1
:1028B30054F048FE743B2FF582740712303F9000AA
:0628C3003DE004F080CDB1
:0128C90022EC
:102CB700900034EFF0A3EDF0A3EBF0A3EAF0A3E963
:012CC700F01C
:102CC800E4A3F0900036E0FBA3E0FAA3E0F9A3E068
:102CD800F582758300120625FB601B900034E0FF27
:102CE800900039E0FE900035E02EFD122836900065
:062CF80039E004F080CD7C
:012CFE0022B3
:1029E300122E647FAE12312E7FD512312E7F8012CC
:1029F300312E7FA812312E7F3F12312E7FD3123119
:102A03002EE4FF12312E7F4012312E7FA112312E80
:102A13007FC812312E7FDA12312E7F1212312E7FB0
:102A23008112312E7FCF12312E7FD912312E7FF1B9
:102A330012312E7FDB12312E7F3012312E7FA41202
:102A4300312E7FA612312E7F8D12312E7F1412313B
:092A53002E7FAF12312E02309AE1
:10279C003078255800555000444F574E005350493F
:1027AC004E4C454654005350494E524947485400EC
:1027BC005350494E4C454654203930005350494EE5
:1027CC005249474854203930004C454654204672F3
:1027DC006F6E740052494748542046726F6E7400F5
:1027EC0053544F5000534F554E44004C4947485496
:1027FC000030004C454E3A2053686F7274004C45C3
:10280C004E3A204E6F726D616C004C454E3A204C26
:10281C006F6E6700474F20474F20474F0053746F30
:0A282C00700044454641554C54002D
:0931720041008700420075006471
:10305F00A2B3E433900031F09000307401F0FB7AAA
:0E306F000079307F03121A78D28AD2AAD2AF2B
:01307D002230
:030013000222FCCA
:1022FC00C0E0C0F0C083C082C0D075D000C000C0A8
:10230C0001C002C003C004C005C006C007C2AF9024
:10231C00006FE4F0C2A830B3030224289000747458
:10232C005FF020B318900074E0D39400400F7F64EA
:10233C007E00122CFF900074E014F080E520B303B3
:10234C0002241B9000747432F030B318900074E0C7
:10235C00D39400400F7F647E00122CFF900074E039
:10236C0014F080E5900088E4F0900089E4F090008F
:10237C00747406F020B318900074E0D39400400FEE
:10238C007F647E00122CFF900074E014F080E590C6
:10239C0000747437F030B32A900074E0D39400408A
:1023AC00217F647E00122CFF90006FE004F09000FF
:1023BC0074E014F090006FE0D3942340D8D2A802BC
:1023CC002461900088E0FF2470F582E43400F583EA
:1023DC00E0FEC313F090006FE0C39408400E7470DD
:1023EC002FF582E43400F583E04480F090006FE434
:1023FC00F0900089E004F0E0C39408500302237AC3
:10240C00900088E004F0E0C394045003022375901C
:10241C000073E0F4FF900072E06F7039900072E08E
:10242C00900087F012309A90000374FFF0A3742789
:10243C00F0A3749CF0900087E0900006F07B017A8A
:10244C00007977120F887B017A0079777D017F0301
:10245C00122CB7D2AFD007D006D005D004D003D001
:10246C0002D001D000D0D0D082D083D0F0D0E032D6
:10166A00900072E01208D716EC0716FD0917C70C8E
:10167A00173B0D16B915171A1617DF1817AB1917D6
:10168A00774016DB4316CA44175C4516A8461798D6
:10169A0047182F4A18105217F75E0000183E7D9817
:1016AA007C08E4FF12247C7BFF7A2779A180707D75
:1016BA00987C087F0112247C7BFF7A2779A4805FBB
:1016CA007D047C067F0412247C7BFF7A2779A9801B
:1016DA004E7D047C067F0512247C7BFF7A2779B233
:1016EA00803D7D987C087F0412247C7BFF7A2779D1
:1016FA00BC800F7D987C087F0512247C7BFF7A27AB
:10170A0079C87D017F01122CB77F907E0102182AC9
:10171A007D987C087F0212247C7BFF7A2779D57D0D
:10172A00017F01122CB7900075E0FEA3E0FF0218BA
:10173A002A7D987C087F0312247C7BFF7A2779E034
:10174A007D017F01122CB7900075E0FEA3E0FF0235
:10175A00182AE4FDFC7F0612247C7BFF7A2779ECA9
:10176A007D017F01122CB712258D0218537BFF7A57
:10177A002779F17D017F01122CB77F0112314D7F4C
:10178A00C87E00122C66E4FF12314D0218537BFF0B
:10179A007A2779F77D017F01122CB712000E021801
:1017AA00537D987C08E4FF12247C7BFF7A2779FD1D
:1017BA007D017F01122CB77FE87E0380637BFF7A6D
:1017CA002779FF7D017F02122CB7900075E4F0A300
:1017DA007432F080747BFF7A28790A7D017F0212C5
:1017EA002CB7900075E4F0A37464F0805C7BFF7AF8
:1017FA002879167D017F02122CB79000757401F0CA
:10180A00A374F4F080437D987C08E4FF12247C7B67
:10181A00FF7A2879207D017F01122CB77F487E0D3F
:10182A00122C66801C7BFF7A2879297D017F0112A0
:10183A002CB7800D7BFF7A28792E7D017F01122C2F
:10184A00B7E4FDFC7F0612247CE4900088F0900047
:10185A0088E0FFC39404501474702FF582E43400B6
:0D186A00F583E4F0900088E004F080E222B5
:10002600463A31004C3A3120463A30004C3A3020BC
:04003600463A300016
:102F4F009000317440F09000307401F0FB7A0079FA
:102F5F00307F02121A789000317480F09000307434
:0C2F6F0001F0FB7A0079307F02021A7832
:102D8600900034EBF0A3EAF0A3E9F07D407F021255
:102D96002DFEE4F933FF900034E0FBA3E0FAA3E054
:102DA600C98FF01207137D807F02122DFEE4F933DE
:102DB600FF900037E0FBA3E0FAA3E0C98FF002071B
:012DC60013F9
:10258D00900030E4F0A304F0A3E4F0A304F0900075
:10259D00377401F0A37400F0A37432F07B017A005C
:1025AD007930122D86900032E07002A3E070257B09
:1025BD00FF7A0079267D017F01122CB77D987C086A
:1025CD007F0512247C7FC27E01122C667D987C08CB
:1025DD007F06805D900030E07002A3E070219000D6
:1025ED0032E07004A3E0640170157BFF7A00792A54
:1025FD007D017F01122CB77DE07C067F0380329038
:10260D000030E07004A3E064017029900032E070A6
:10261D0004A3E06401701D7BFF7A0079327D017F98
:10262D0001122CB77F647E00122C667DE07C067F44
:0E263D000212247C7F327E00122C6602259B46
:103118009000317410F0E4900030F07B017A00796F
:06312800307F03021A785B
:0E314D00EF7D107F037003022FA6122EC42206
:10307E009000387403F0A3743FF07B017A00793826
:0C308E00E4FF121A787D3FE4FF022FA639
:102FD000E4900030F0A3F0A304F0E4A3F0A3F0A386
:102FE00074F7F0A3745DF0A37401F0FB7A007930FC
:072FF000FF121FBA02307E40
:102FF700EF245DFDEE34F7FCC3E49FFFE49EC2AF10
:103007009000D6F0A3EFF0AE04AF059000D4EEF039
:05301700A3EFF0D2AFB1
:01301C002291
:03001B00022D4370
:102D4300C0E0C083C082C0D075D000C004C00530CD
:102D530084139000D6E0FCA3E0FDECF58D8D8BC2CF
:102D630084C28580119000D4E0FCA3E0FDECF58DD6
:102D73008D8BD284D285D005D004D0D0D082D0839D
:032D8300D0E0326B
:10247C00900038EFF0A3ECF0A3EDF0C394F4EC94DF
:10248C0001500A9000397401F0A374F4F0900039F3
:10249C00E0FEA3E0FFE4FCFD7BA27A08F9F8C3128E
:1024AC00080E500A9000397408F0A374A2F0900042
:1024BC0038E0B4070040030225709024CDF828289A
:1024CC00730224E20224EB0224FB02250B022514E6
:1024DC0002252B0225497D08E4FF122FA680177DCB
:1024EC0008E4FF122EC47D04E4FF122FA6803E7D6B
:1024FC0008E4FF122EC47D04E4FF122EC480177D65
:10250C0008E4FF122FA6803C7D08E4FF122EC47D48
:10251C0004E4FF122FA67D01E4FF122FA680337D69
:10252C0008E4FF122FA67D04E4FF122EC47D01E403
:10253C00FF122EC47D02E4FF122FA6801C7D08E43E
:10254C00FF122EC47D04E4FF122EC47D01E4FF12A1
:10255C002EC47D02E4FF122EC4900039E0FEA3E0ED
:10256C00FF022FF77D08E4FF122EC47D04E4FF1256
:10257C002EC47D01E4FF122EC47D02E4FF122EC492
:01258C00222C
:103101004C4C20434C20435220525200302020305E
:0731110020203020203000D7
:102BC0009000317401F0900030F0FB7A0079307F92
:102BD00002121A789000317402F090003014F0FB69
:102BE0007A0079307F02121A789000317404F090E4
:102BF00000307401F0FB7A0079307F02121A78906D
:102C000000317408F09000307401F0FB7A007930E4
:052C10007F02021A78AA
:102AD400900038EBF0A3EAF0A3E9F07D017F021245
:102AE4002DFEE4F933FF900038E0FBA3E0FAA3E005
:102AF400C98FF01207137D027F02122DFEE4F93311
:102B0400FF90003BE0FBA3E0FAA3E0C98FF01207BB
:102B1400137D047F02122DFEE4F933FF90003EE0A2
:102B2400FBA3E0FAA3E0C98FF01207137D087F022C
:102B3400122DFEE4F933FF900041E0FBA3E0FAA379
:072B4400E0C98FF002071346
:05000E00121C4180FB03
:101E0100E49000B7F0A3F0A3F0A3F0A3F0A3F0A334
:101E1100F0A3F07B0190003B04F0A37400F0A374E5
:101E2100B9F0A3EBF0A37400F0A374BBF0A3EBF043
:101E3100A37400F0A374BDF07A0079B7122AD4908C
:101E410000B7E07004A3E06401702D9000B9E07068
:101E510004A3E0640170219000BBE07004A3E0647E
:101E61000170159000BDE07004A3E0640170097D6C
:101E71004C7C047F0312247C9000B7E07002A3E045
:101E810070269000B9E07002A3E0701C9000BBE0E6
:101E91007002A3E070129000BDE07002A3E0700830
:101EA1007D4C7C04FF12247C9000B7E07004A3E019
:101EB100640170289000B9E07002A3E0701E9000E8
:101EC100BBE07002A3E070149000BDE07004A3E0D9
:101ED100640170087DE07C06FF12247C9000B7E06D
:101EE1007004A3E06401702B9000B9E07002A3E0DC
:101EF10070219000BBE07004A3E0640170159000B4
:101F0100BDE07004A3E0640170097D287C057F02B7
:101F110012247C9000B7E07004A3E06401702B9060
:101F210000B9E07004A3E06401701F9000BBE07091
:101F310002A3E070159000BDE07004A3E06401709D
:101F4100097D287C057F0312247C9000B7E0700492
:101F5100A3E06401702B9000B9E07004A3E0640178
:101F6100701F9000BBE07004A3E064017013900047
:101F7100BDE07002A3E070097D287C057F05122475
:101F81007C9000B7E07002A3E0702D9000B9E07082
:101F910004A3E0640170219000BBE07004A3E0643D
:101FA1000170159000BDE07004A3E0640170097D2B
:081FB100287C057F0412247C4A
:011FB9002205
:101C4100E4900030F0A3F0A3F0A3F0A3F0A3F0A37D
:101C5100F0A3F07B0190003B04F0A37400F0A374A7
:101C610032F0A3EBF0A37400F0A37434F0A3EBF013
:101C7100A37400F0A37436F07A007930122AD4905C
:101C81000030E07004A3E06401702D900032E07038
:101C910004A3E064017021900034E07004A3E064C7
:101CA100017015900036E07004A3E0640170097DB5
:101CB100967C057F0312247C900030E07002A3E043
:101CC1007026900032E07002A3E0701C900034E0B6
:101CD1007002A3E07012900036E07002A3E0700879
:101CE1007D0C7C07FF12247C900030E07004A3E09F
:101CF10064017028900032E07002A3E0701E900031
:101D010034E07002A3E07014900036E07004A3E0A8
:101D1100640170087D0C7C07FF12247C900030E088
:101D21007004A3E06401702B900032E07002A3E024
:101D31007021900034E07004A3E0640170159000FC
:101D410036E07004A3E0640170097D727C067F02B5
:101D510012247C900030E07004A3E06401702B90A9
:101D61000032E07004A3E06401701F900034E07061
:101D710002A3E07015900036E07004A3E0640170E6
:101D8100097D727C067F0312247C900030E0700490
:101D9100A3E06401702B900032E07004A3E06401C1
:101DA100701F900034E07004A3E064017013900090
:101DB10036E07002A3E070097D727C067F05122473
:101DC1007C900030E07002A3E07034900032E0704B
:101DD10004A3E064017028900034E07004A3E0647F
:101DE10001701C900036E07004A3E0640170107D66
:0F1DF100727C067F0412247C7F647E00122C66B5
:011E000022BF
:1028CA00E49000BFF0A3F0A3F0A3F0A3F0A3F0A359
:1028DA00F0A3F07B0190003B04F0A37400F0A37412
:1028EA00C1F0A3EBF0A37400F0A374C3F0A3EBF060
:1028FA00A37400F0A374C5F07A0079BF122AD490A9
:10290A0000BFE07002A3E070207D287C057F0212E0
:10291A00247C7F017E00122C667D287C05E4FF1250
:10292A00247C7F0A7E00022C667BFF7A3179017D46
:10293A00017F01122CB77BFF7A31790D7D017F026D
:0C294A00122CB77D4C7C047F0312247C0F
:01295600225E
:102EF4009000307440F0A37402F0E4FCFDA31208C7
:102F04007A9000377401F0E4A3F0A304F0A3F0A3D3
:0E2F14007440F07B017A0079307F010213A631
:052A5C009000CFEDF039
:102A6100E4A3F0A3EBF0A3EAF0A3E9F09000CFE038
:102A7100FFA3E0FEC39F5055C2AF900046E0FF9018
:102A81000045E0B50704D2AF8043900045E02447FC
:102A9100F582E43400F583E0FF9000D1E0FBA3E090
:102AA100FAA3E0F98E82758300EF12066490004567
:102AB100E02401FFE433FE7C007D28120686AF0589
:102AC100EDF0D2AF009000D0E004F0809F9000D0F4
:022AD100E0FF24
:012AD30022E0
:102E94009000DCEBF0A3EAF0A3E9F0E4FFEFC39DBC
:102EA400501D9000DCE0FBA3E0FAA3E0F98F8275EB
:0F2EB4008300120625F5993099FDC2990F80DE33
:012EC30022EC
:03002300022B4B62
:102B4B00C0E0C0F0C083C082C0D075D000C000C050
:092B5B0003C004C005C006C00758
:102B6400309842AB99C298900046E02401FFE433C8
:102B7400FE7C007D28120686AF05900045E06D605E
:102B840024AF03A3E02447F582E43400F583EBF09B
:102B9400900046E02401FFE433FE7C007D28120609
:052BA40086AF05EDF015
:102BA900D007D006D005D004D003D000D0D0D08231
:072BB900D083D0F0D0E03220
:080003008F993099FDC299228A
:1030B50025640025302E3166434D000000000000D8
:0B30C500000000000000000000000000
:102F7B009000E37440F09000E27403F07B017A0060
:102F8B0079E27F01121A789000E37401F09000E26D
:0B2F9B00F0FB7A0079E27F80021A78D8
:1030E900E49000C8F0A37448F0E49000CBF07B01B1
:0830F9007A0079C7FF02215D96
:1018770012317C90008A12087A788E7C007D017B79
:10188700FF7A3079C07E007F101205E690009E1225
:101897000886000000009000D8E0F8A3E0F9A3E074
:1018A700FAA3E0FB90008AE0FCA3E0FDA3E0FEA31F
:1018B700E0C39BFFEE9AFEED99FDEC98FCE47B6498
:1018C700FAF9F8D312080E4008E4FFFE7D807CBFCA
:1018D7002290008AE0FCA3E0FDA3E0FEA3E0FF90D6
:1018E70000D812087A90000374FFF0A37430F0A3B5
:1018F70074B5F090008AE0FCA3E0FDA3E0FEA3E04E
:10190700FF90000612087A7B017A00798E120F8801
:101917007B017A00798E7D017F02122CB77D407F93
:1019270001122FA67F017E00122C667D407F0112D7
:101937002EC47D017F80122DFE405712317C90000E
:101947008A12087A9000D8E0F8A3E0F9A3E0FAA396
:10195700E0FB90008AE0FCA3E0FDA3E0FEA3E0C368
:101967009BFFEE9AFEED99FDEC98FCE47B64FAF997
:10197700F8C312080E50BB90008AE0FCA3E0FDA359
:10198700E0FEA3E0FF9000D812087AE4FFFEFD7C9A
:10199700C022E4F5F9F5E9D2DE7D017F80122DFE44
:1019A700505812317C90008A12087A9000D8E0F8DB
:1019B700A3E0F9A3E0FAA3E0FB90008AE0FCA3E030
:1019C700FDA3E0FEA3E0C39BFFEE9AFEED99FDECBD
:1019D70098FCE47B64FAF9F8C312080E50BB900038
:1019E7008AE0FCA3E0FDA3E0FEA3E0FF9000D8128D
:1019F700087AE4FFFE7D407CC022AFF9EFFEADE937
:101A0700EDFFE4F5F9F5E9C2DEAD07AC061201E931
:101A17007B727A1C7997783C12003EE4FBFAF978DE
:101A27004012014790009E12087A90000374FFF05D
:101A3700A37430F0A374B8F090009EE0FCA3E0FD1F
:101A4700A3E0FEA3E0FF90000612087A7B017A006C
:101A5700798E120F887B017A00798E7D017F0112C2
:101A67002CB790009EE0FCA3E0FDA3E0FEA3E0FFFF
:011A7700224C
:101A7800EFD3940540057E007F012212060CFDD3AA
:101A8800940340057E007F0222EF7041ED700B90B9
:101A98000001120625F45293529412060CB4010B5D
:101AA8009000011206254293F4529412060CFEB4DB
:101AB800020A90000112062542934294EEB4030DE7
:101AC800900001120625FEF45293EE4294EF640151
:101AD800704312060CFE700B900001120625F4529A
:101AE800915292EEB4010B9000011206254291F436
:101AF800529212060CB4020A900001120625429175
:101B0800429212060CB4030D900001120625FEF451
:101B18005291EE4292EF6402704312060CFE700B73
:101B2800900001120625F452955296EEB4010B90DE
:101B380000011206254295F4529612060CB4020AC8
:101B48009000011206254295429612060CB4030D28
:101B5800900001120625FEF45295EE4296EF6403BA
:101B6800704312060CFE700B900001120625F45209
:101B7800B152B2EEB4010B90000112062542B1F445
:101B880052B212060CB4020A90000112062542B1A4
:101B980042B212060CB4030D900001120625FEF4A1
:101BA80052B1EE42B2EF6404704312060CFE700BA1
:101BB800900001120625F452B352B4EEB4010B9012
:101BC800000112062542B3F452B412060CB4020AFC
:101BD80090000112062542B342B412060CB4030D5C
:101BE800900001120625FEF452B3EE42B4EF6405EC
:101BF800704312060CFF700B900001120625F45278
:101C0800C952CAEFB4010B90000112062542C9F46B
:101C180052CA12060CB4020A90000112062542C9E3
:101C280042CA12060CB4030D900001120625FFF4F7
:091C380052C9EF42CAE4FEFF228A
:102FA600EF7003ED4280EFB40103ED4290EFB402FF
:102FB60003ED42A0EFB40303ED42B0EFB40403ED1A
:0A2FC60042C0EFB40503ED42C8223B
:102EC400EF7004EDF45280EFB40104EDF45290EF8E
:102ED400B40204EDF452A0EFB40304EDF452B0EFE5
:102EE400B40404EDF452C0EFB40504EDF452C82266
:102DFE00EF7004AE808026EFB40104AE90801EEF1B
:102E0E00B40204AEA08016EFB40304AEB0800EEF91
:102E1E00B40404AEC08006EFB40507AEC8EE5D2460
:032E2E00FF22C3BD
:012E3100227E
:02001E00F8CD1B
:102F22009000307401F0A3F0A3F0A3F0E4A3F090BA
:102F3200001E93FF740193900035CFF0A3EFF0A32E
:0D2F42007401F0FB7A007930E4FF021FBA41
:03000B00022C15AF
:102C1500C0E0C0F0C083C082C0D075D000C000C085
:102C250004C005C006C00790001EE493FE7401931E
:102C3500F58AEEF58C780D120832EF2401FFE43E9B
:102C4500FEE43DFDE43CFC780D12086ED007D0068D
:102C5500D005D004D000D0D0D082D083D0F0D0E041
:012C6500323C
:09317C00C2AF780D120832D2AF87
:013185002227
:040016007F03DFFE87
:01001A0022C3
:0731A1000000007F34DFFE97
:0131A8002204
:083198007F037E1ADEFEDFFC5E
:0131A000220C
:102CFF00AD07AC06C3ED9464EC9400400D1231980F
:102D0F00749C2DFD74FF3CFC80EAC3ED940AEC9497
:102D1F0000400D1231A174F62DFD74FF3CFC80EACA
:102D2F00D3ED9400EC9400400A120016ED1D70F0E4
:042D3F001C80ED22E5
:082C6600900038EEF0A3EFF03E
:102C6E0012317C90003A12087A12317C90003E129A
:102C7E00087A90003AE0F8A3E0F9A3E0FAA3E0FBAB
:102C8E00A3E0FCA3E0FDA3E0FEA3E0C39BFBEE9A52
:102C9E00FAED99F9EC98F8900038E0FEA3E0FFE425
:082CAE00FCFDC312080E40C139
:012CB60022FB
:101FBA00AD07EDD3940340057E007F0122ED600357
:101FCA00022050C28C900002120625B40104D2A944
:101FDA008002C2A9900001120625B40104D2B98078
:101FEA0002C2B912060CFCD394034003022158E53D
:101FFA008954FC4CF589900003120625FFB40103AD
:10200A00538E7FEF7003438E80EFB4020543890439
:10201A0080035389FB900004120625B40105438FFF
:10202A00018003538FFE9000051206DBE5F0F58C64
:10203A009000051206DBF58A900007120625B40106
:10204A0002D28C022154ED640160030220DFC28EA9
:10205A00900002120625B40104D2AB8002C2AB90F2
:10206A000001120625B40104D2BB8002C2BB1206CB
:10207A000CFCC394034003022158ECC454F0FFE55E
:10208A008954CF4FF589900003120625FFB4010346
:10209A00538EBFEF7003438E40EFB402054389406D
:1020AA0080035389BF900004120625B40105438FAB
:1020BA00028003538FFD9000051206DBE5F0F58DD3
:1020CA009000051206DBF58B900007120625B40175
:1020DA0002D28E8075ED64027074538EEF90000206
:1020EA00120625B4010543AF04800353AFFB9000E9
:1020FA0003120625FDD3940240028052EDB4010377
:10210A00538EFB9000031206257003438E04900041
:10211A0003120625B40205438E088003538EF790F6
:10212A000004120625B40105438F048003538FFB74
:10213A009000051206DBFDACF0ECF5D68DD79000C9
:10214A0007120625B40103438E10E4FEFF227E0027
:03215A007F0222DF
:10264B00EF7034D3ED9450EC940F40047C0F7D501D
:10265B00C3ED9450EC940050047C007D50C2DE908E
:10266B0000ABECF0A3EDF0C374A09D9000A6F0744A
:10267B000F9C9000A58073EF64017034D3ED9468C8
:10268B00EC940B40047C0B7D68C3ED9450EC9400F0
:10269B0050047C007D50C2DE9000ADECF0A3EDF059
:1026AB00C374B89D9000A8F0740B9C9000A7803A5F
:1026BB00EF64027038D3ED9480EC940740047C07F0
:1026CB007D80C3ED9450EC940050047C007D50C28F
:1026DB00DE9000AFECF0A3EDF0AE04FFC374D09F1F
:0E26EB009000AAF074079E9000A9F0D2DE22A3
:10215D009000DFEBF0A3EAF0A3E9F0AD07EDD39427
:10216D000340030222FBED6403704CC2DEF5F9F56A
:10217D00E99000DFE0FBA3E0FAA3E0F912060CFF03
:10218D00E5A254CF4FF5A2900001120625FFE5D927
:10219D0054F14FF5D99000041206255401FFE5D9ED
:1021AD0054FE4FF5D9900005120625B40104D2BF97
:1021BD008002C2BFD2DE229000DFE0FBA3E0FAA3D3
:1021CD00E02404F9E43AFA12060C54311206529046
:1021DD0000DFE0FBA3E0FAA3E0F990000212062570
:1021ED00C39448400FE92404F9E43AFA12060C545A
:1021FD00CF120652ED704F9000DFE0FBA3E0FAA383
:10220D00E0F9900004120625FF900002120625FE4B
:10221D004FF5DA900003120625FFE5F2543F4FF516
:10222D00F29000061206DBFBAAF09000ABEAF0A3D9
:10223D00EBF0C2099000A2EEF09000B1EAF0A3EB32
:10224D00F0F5EAEAF5FAED6401704F9000DFE0FB7E
:10225D00A3E0FAA3E0F9900004120625FF90000216
:10226D00120625FE4FF5DB900003120625FFE5F360
:10227D00543F4FF5F39000061206DBFBAAF09000D9
:10228D00ADEAF0A3EBF0C20A9000A3EEF09000B31C
:10229D00EAF0A3EBF0F5EBEAF5FBED6402704F907D
:1022AD0000DFE0FBA3E0FAA3E0F99000041206259D
:1022BD00FF900002120625FE4FF5DC90000312067A
:1022CD0025FFE5F4543F4FF5F49000061206DBFDB3
:1022DD00ACF09000AFECF0A3EDF0C20B9000A4EECB
:0F22ED00F09000B5ECF0A3EDF0F5ECECF5FC2271
:03003B000226F9A1
:1026F900C0E0C083C082C0D075D000C006C007301A
:10270900D82AC2D830A5059000AB80039000A5E077
:10271900FEA3E0FF9000B2E02FF09000B1E03EF0A0
:102729009000B1E0FEA3E0F5EAEEF5FA30D92AC24D
:10273900D930A6059000AD80039000A7E0FEA3E084
:10274900FF9000B4E02FF09000B3E03EF09000B3AA
:10275900E0FEA3E0F5EBEEF5FB30DA2AC2DA30A7AA
:10276900059000AF80039000A9E0FEA3E0FF900070
:10277900B6E02FF09000B5E03EF09000B5E0FEA382
:10278900E0F5ECEEF5FCD007D006D0D0D082D083AE
:03279900D0E0325B
:1013A60090003EEBF0A3EAF0A3E9F090003DEFF0E9
:1013B6006401600302155FA3E0FBA3E0FAA3E0F972
:1013C60012060CD394C040037F022290000A120634
:1013D60025B40104D2BC8002C2BC12060CFFE598FB
:1013E600543F4FF598EF64C06008EF644060030215
:1013F60014D990000212083E7F007E607D547C0066
:1014060012076E90004112087AE4FFFE7D01FC90FF
:101416000041E0F8A3E0F9A3E0FAA3E0FBC3120859
:101426000E40037F0222900041E0F8A3E0F9A3E01A
:10143600FAA3E0FBC3E49BFFE49AFE740199FDE482
:1014460098FC90004112087A90003EE0FBA3E0FA77
:10145600A3E0F9900001120625FB64017038C28EE4
:10146600538EFE5389BF5389CF438E40900041E08F
:10147600FCA3E0FDA3E0FEA3E0FF780812081F8F9F
:101486008D900041A3A3A3E0F58BC2AB5389BF5354
:101496008FFDD28E8076EB64027035538EEF438ECD
:1014A60001538EF7438E04900041E0FCA3E0FDA3B8
:1014B600E0FEA3E0FF780812081F8FD6900041A334
:1014C600A3A3E0F5D753AFFB538EF7438E10803CB2
:1014D6007F022290003EE0FBA3E0FAA3E0F91206A9
:1014E6000CFF7013900008120625B40105438E20E8
:1014F600801A538EDF8015EFB48011900008120613
:1015060025B40105438780800353877F90003EE022
:10151600FBA3E0FAA3E0F9900009120625B4010442
:10152600D2AC8002C2AC900007120625B40104D2E8
:101536009C8002C29C90000B12062554C0FFE5A2B7
:10154600543F4FF5A290000C120625B401054397AF
:101556001080035397EF7F002290003DE064026005
:1015660003021667A3E0FBA3E0FAA3E0F912060C58
:10157600FF64C06008EF6440600302162790000A0B
:10158600120625B4010543B501800353B5FE1206C4
:101596000CB4C005439A808003539A7F90000212D0
:1015A600083E7F007E607D547C0012076E900041ED
:1015B60012087AE4FFFE7D01FC900041E0F8A3E00A
:1015C600F9A3E0FAA3E0FBC312080E40037F022250
:1015D600900041E0F8A3E0F9A3E0FAA3E0FBC3E43E
:1015E6009BFFE49AFE740199FDE498FC9000411279
:1015F600087A538EEF538EF7438E04900041E0FC39
:10160600A3E0FDA3E0FEA3E0FF780812081F8FD633
:10161600900041A3A3A3E0F5D753AFFB438E108000
:10162600037F022290003EE0FBA3E0FAA3E0F990DC
:101636000009120625B4010543AF01800353AFFE2E
:10164600900007120625B40105439A108003539AA9
:10165600EF90000B1206255401FFE5BA54FE4FF534
:03166600BA7F0048
:01166900225E
:10003E00EC4D6011E8497017ED33EC3304600DE4BC
:10004E00FCFFFEFD22E933E8330470F8020257127A
:10005E00022258046009E4CC24815006285009027B
:10006E00026128400302025EC0E0EB4A7044B98090
:10007E0006D0E0FB02024DEF4E701CBD8008EBFF78
:10008E00EAFEE9FD80EBE98DF0A4FEE5F002012722
:10009E00E9CDF9EAFEEBFFEF89F0A4FCE5F0CE899D
:1000AE00F0A42EFFE435F0CD89F0A42DFEE435F05A
:1000BE008067EF4E7005BD80D780C3EF8BF0A4AC88
:1000CE00F0EE8BF0A42CFCE435F0F8EF8AF0A42CC3
:1000DE00E5F038FCE433CB8DF0A42CFCE5F03BF8D6
:1000EE00EE8AF0A42CFCE5F038F8E433CF89F0A4C6
:1000FE002CFCE5F038CF3400CE89F0A42FFFE5F0CC
:10010E003EFEE433C98DF0A42EFEE5F039CD8AF023
:10011E00A42FFFE5F03EFEE43DFD33D0E0FB50079B
:10012E000BBB000F020261EC2CFCEF33FFEE33FE33
:06013E00ED33FD02023961
:10014400020261EC5D046005E85904700302025781
:10015400120222580460F6EC4860F2EC7004FDFED2
:10016400FF22C860DB2481C85009C398600250068E
:1001740002025E9850CAF582E9294B4A7005AB82A7
:1001840002024D75F0007C1A7880C3EF9BEE9AED65
:1001940099400DC3EF9BFFEE9AFEED99FDE842F006
:1001A400DC23ACF0D0E0FFD0E0FED0E0FDAB822059
:1001B400E7101BEB60BAEC2CFCEF33FFEE33FEEDE3
:1001C40033FD020239E803F830E705C0F075F000AA
:1001D400EF2FFFEE33FEED33FD40B830E7C280AAC7
:1001E40075F020800E75F010800575F0087D007E96
:1001F400007F003392D530D503120800EC33401051
:10020400EF33FFEE33FEED33FDEC33FCD5F0ED229E
:0E021400E5F0247EA2D513CC92E7CDCEFF22DA
:100F2300E5082403F582E43400F583E00508229004
:100F33000000300703900003E475F0011208B702C4
:100F4300060C2000E97F2ED2008018EF540F249066
:100F5300D43440D4FF30040BEF24BFB41A00500341
:100F63002461FFE50960021509050CE50C70020513
:100F73000B30070E900000E475F0011208B7EF0282
:100F830006520200037403D2078003E4C207F50884
:100F93009000001208CEE4F509F50BF50CE50960A5
:100FA300077F20120F6680F5750AFFC201C200C2D7
:100FB30002C203C205C206C208120F32FF700D300F
:100FC30007057F00120F77AF0CAE0B22B4255FC26B
:100FD300D5C204120F32FF24D0B40A00501A75F0A0
:100FE3000A780930D50508B6FF0106C6A426F620FF
:100FF300D5047002D20380D924CFB41A00EF500471
:10100300C2E5D204021269D20180C6D20080C0D2E6
:101013000280BCD2D580BAD20580B47F20120F667D
:101023002002077401B5090040F1120F23FF120FCC
:1010330066020FA0D208D2068095120F23FB120F6F
:1010430023FA120F23F94A4B700679677A137BFF51
:1010530020022EE509602A7E008E82758300120627
:101063002560060EEE650A70F0C2D5EBC0E0EAC05B
:10107300E0E9C0E0EE1212CAD0E0F9D0E0FAD0E025
:10108300FB12060CFF60AAEBC0E0EAC0E0E9C0E097
:10109300120F66D0E02401F9D0E03400FAD0E0FB6F
:1010A300E50A0460DCD50AD98087D20280A2121235
:1010B300AC60F7E50A70010412026CA90A600DE541
:1010C3000A600914F50A121354EF60F3EA30E702D9
:1010D300F404C3995079EAF4250A0430E701E404DF
:1010E300F50A800D1212AC60C1EA050A250A120244
:1010F3006CEA90002FF030E701E4250A04D50A04D6
:10110300200501141212CAE4C0E012135490002FF8
:10111300E0601320E70714F0120F4E802204F0D092
:10112300E014C0E07F00120F4EE50A6007120F457E
:10113300150A800B300503120F45D0E0020FA0D033
:10114300E00480C41212AC609EE50A0412026C90A3
:10115300002FEAF0E50A20050260010424041212BC
:01116300CAC1
:1011640074FF04C0E0121354120F4EE50A20050266
:101174006003120F45D0E0B50AE87F45120F58907E
:10118400002FE07F2B30E7047F2DF404C0E0120F22
:1011940066D0E075F00A84C0F0120F4FD0E0120F51
:1011A4004F020FA0791080027908C206C208800895
:1011B400D2D5790A8004790AC2D5E50A047002F509
:1011C4000AE4FAFDFEFF120F23FC7B082001131230
:1011D4000F23FD7B1030000A120F23FE120F23FF92
:1011E4007B20EC3382D592D55013C3E43000069FA4
:1011F400FFE49EFEE42001039DFDE49CFCE4CBF8A7
:10120400C201EC700CCFCECDCCE824F8F870F3809A
:1012140017C3EF33FFEE33FEED33FDEC33FCEB335A
:10122400FB994002FB0FD8E9EB300105F8D0E0C48C
:1012340048B201C0E00AEC4D4E4F78207B0070C2EA
:10124400EAB50A0040BCC0E01212CCD0F0D0E020D5
:101254000104C4C0E0C4B201C0F0120F4FD0F0D5F5
:10126400F0EB020FA01208D7103D5311A858100E2E
:101274004C100A4211AC4F11B44411B44910234329
:1012840011BA5510E74611474510B147138750105E
:10129400122D10162E10392B101A2310372013700C
:1012A4002A0FD24800001031E50AB4FF03750A067C
:1012B400120F23FC120F23FD120F23FE120F23FF24
:1012C4009000280202A9790AA2D520031430050946
:1012D400B910020404B9080104A2D5200602500181
:1012E400042002689202B509005034C0E07F203027
:1012F40003197F30A20272067205500F121323C223
:1013040002C206C205C2087F30800F300503E9C05F
:10131400E0120F66300503D0E0F9D0E0B509CC3017
:1013240005177F30B9100C120F667F583004077F01
:10133400788003B90803120F663002057F2D020F6F
:10134400667F202008F87F2B2006F322920280CFAC
:101354007F00B40700500B2428F582E43400F583A1
:10136400E0FF22286E756C6C2900D201120F233025
:1013740001F8C201780930D50108F6020FD22D50C8
:10138400434958120F232403B405004001E4901389
:101394008293120F57743A120F57D203750904023D
:0213A40011A88E
:10022200E9D2E7C933E833F892D5EDD2E7CD33EC22
:0702320033FC5002B2D5229B
:10023900EC30E7100FBF000C0EBE00080DBD000426
:100249000BEB6014A2D5EB13FCED92E7FD2274FFD2
:10025900FCFDFEFF22E480F8A2D574FF13FC7D802B
:03026900E480EF3F
:10026C00F920E73624F950037907E4F42402FBE57E
:10027C0082158270021583DBF6E024FB501BE960CB
:10028C0014E4F0E582158270021583E004F0B40AE0
:0D029C0008E4F0D9EE7401F00A22C2D52268
:1002A900ED33EC3392D5FA602AB4FF33EDC2E77B24
:1002B900FF60067A0279CEE4227A0279D720D50442
:1002C9007A0279D2224E614E002B494E46002D49C1
:1002D9004E4600E47A08F0A3DAFC7B00740722C0DA
:1002E90083C082ECC0E0EDC0E0EEC0E0EFC0E0EA20
:1002F90075F010A4CAABF075F04DA42BFBE435F0F2
:10030900FCEA2410FAEB34C5FBEC34D9FCEDC2E766
:10031900FF75F056A4F42411C5F0F434C58FF0A488
:100329002AE5F03BE43CF020E7141204D6D0E0FFC4
:10033900D0E0FED0E0FDD0E0FC1201478014F404C7
:100349001204D6D0E0FFD0E0FED0E0FDD0E0FC12F0
:10035900003ED082D083E0FAEDD2E7CD33EC3324EE
:1003690082FBE4C3CF33CFCE33CECD33CD33DBF3F2
:100379007B0775F00A846004F0A31B0AE5F0F0A37B
:100389008FF0740AA4FFACF08EF0740AA42CFEACB2
:10039900F050010C8DF0740AA42CFDE435F0F0A3A3
:0503A900DBDE740722F9
:1003AE00020257E86480F8E933E83360110460F024
:1003BE00ED33EC337009E8FCE9FDEAFEEBFF2204B5
:1003CE0060DED3EB9FEA9EE99DE8C2E78CF0C2F7B0
:1003DE0095F0400CE8CCF8E9CDF9EACEFAEBCFFB7C
:1003EE0012022285D0F05804700320D5B3E80470B1
:1003FE00075002B2D502026192D5EC0460F7E4CC4C
:10040E00C0E0C398F8603B94186008400DD0E0FB44
:10041E00020239E4FBFAC9FC8028E830E406E4C99C
:10042E00FBE4CAFCE830E305E4C9CACBFCE8540798
:10043E006010F8C3E913F9EA13FAEB13FBEC13FCA3
:10044E00D8F130F52FC3E49CFCEF9BFFEE9AFEED46
:10045E0099FDD0E0FBEF4E4D4C701222DB030202F1
:10046E005EEC2CFCEF33FFEE33FEED33FDED30E7AB
:10047E00EB020239EF2BFFEE3AFEED39FDD0E0FB39
:10048E0050130BBB0003020261ED13FDEE13FEEFE2
:08049E0013FFEC13FC0202390C
:1004A6003F8000004120000042C80000447A00005E
:1004B600461C400047C35000497424004B189680E0
:1004C6004CBEBC205A0E1BCA6753C21C749DC5AED7
:1004D600FB60065407601C2323120504EB543860A6
:1004E600091204F01204FF12003EECF8EDF9EEFAE0
:1004F600EFCB22EB1204FF80F1543803241C900446
:10050600A6FE93FC0EEE93FD0EEE930ECE93FF2207
:030000000229577B
:0C295700787FE4F6D8FD75812102299EEE
:10051600E709F608DFFA8046E709F208DFFA803EC7
:1005260088828C83E709F0A3DFFA8032E309F608B4
:10053600DFFA8078E309F208DFFA807088828C831C
:10054600E309F0A3DFFA806489828A83E0A3F608D0
:10055600DFFA805889828A83E0A3F208DFFA804CAA
:1005660080D280FA80C680D4806980F28033801081
:1005760080A680EA809A80A880DA80E280CA8033EA
:1005860089828A83ECFAE493A3C8C582C8CCC58362
:10059600CCF0A3C8C582C8CCC583CCDFE9DEE78032
:1005A6000D89828A83E493A3F608DFF9ECFAA9F0B1
:1005B600EDFB2289828A83ECFAE0A3C8C582C8CC07
:1005C600C583CCF0A3C8C582C8CCC583CCDFEADE20
:1005D600E880DB89828A83E493A3F208DFF980CC82
:1005E60088F0EF60010E4E60C388F0ED2402B4047B
:1005F6000050B9F582EB2402B4040050AF23234522
:06060600822390056673DB
:10060C00BB010689828A83E0225002E722BBFE02EC
:09061C00E32289828A83E493221F
:10062500BB010CE58229F582E5833AF583E022508A
:1006350006E92582F8E622BBFE06E92582F8E222D4
:0D064500E58229F582E5833AF583E49322EE
:10065200BB010689828A83F0225002F722BBFE0187
:02066200F32281
:10066400F8BB010DE58229F582E5833AF583E8F0CC
:10067400225006E92582C8F622BBFE05E92582C878
:02068400F22260
:10068600BC000BBE0029EF8DF084FFADF022E4CC58
:10069600F875F008EF2FFFEE33FEEC33FCEE9DEC21
:1006A600984005FCEE9DFE0FD5F0E9E4CEFD22ED67
:1006B600F8F5F0EE8420D21CFEADF075F008EF2FB1
:1006C600FFED33FD4007985006D5F0F222C398FDA2
:0506D6000FD5F0EA223F
:1006DB00BB0110E58229F582E5833AF583E0F5F05D
:1006EB00A3E0225009E92582F886F008E622BBFE3A
:1006FB000AE92582F8E2F5F008E222E5832AF58380
:08070B00E993F5F0A3E9932244
:10071300BB010A89828A83F0E5F0A3F0225006F731
:0F07230009A7F01922BBFE06F3E5F009F319222E
:1007320075F008758200EF2FFFEE33FECD33CDCC7E
:1007420033CCC58233C5829BED9AEC99E582984001
:100752000CF582EE9BFEED9AFDEC99FC0FD5F0D6DE
:10076200E4CEFBE4CDFAE4CCF9A88222B800C1B908
:100772000059BA002DEC8BF084CFCECDFCE5F0CB46
:10078200F97818EF2FFFEE33FEED33FDEC33FCEB7F
:1007920033FB10D703994004EB99FB0FD8E5E4F93A
:1007A200FA227818EF2FFFEE33FEED33FDEC33FC27
:1007B200C933C910D7059BE99A4007EC9BFCE99A1B
:1007C200F90FD8E0E4C9FAE4CCFB2275F010EF2F60
:1007D200FFEE33FEED33FDCC33CCC833C810D70760
:1007E2009BEC9AE899400AED9BFDEC9AFCE899F89B
:0E07F2000FD5F0DAE4CDFBE4CCFAE4C8F9222E
:0E080000C3E49FFFE49EFEE49DFDE49CFC2209
:10080E00EB9FF5F0EA9E42F0E99D42F0E89C45F040
:01081E0022B7
:10081F00E8600FECC313FCED13FDEE13FEEF13FFB7
:03082F00D8F122DB
:0C083200E6FC08E6FD08E6FE08E6FF22F2
:10083E00BB010DE58229F582E5833AF58302090AAB
:10084E005007E92582F80208FDBBFE07E92582F86C
:10085E00020916E58229F582E5833AF5830209231A
:0C086E00ECF608EDF608EEF608EFF622B6
:0C087A00ECF0A3EDF0A3EEF0A3EFF022F1
:10088600A8828583F0D083D08212089D12089D121B
:10089600089D12089DE473E493A3C583C5F0C58340
:1008A600C8C582C8F0A3C583C5F0C583C8C582C8BC
:0108B600221F
:1008B700F8E0FBA3A3E0F925F0F0E58215827002CA
:0708C7001583E0FA38F0226E
:0908CE00EBF0A3EAF0A3E9F0222B
:1008D700D083D082F8E4937012740193700DA3A3B0
:1008E70093F8740193F5828883E4737402936860C4
:0608F700EFA3A3A380DFC4
:102963000230D0E493A3F8E493A34003F68001F28A
:1029730008DFF48029E493A3F85407240CC8C33375
:10298300C4540F4420C8834004F456800146F6DF44
:10299300E4800B0102040810204080903172E47E31
:1029A300019360BCA3FF543F30E509541FFEE49339
:1029B300A360010ECF54C025E060A840B8E493A300
:1029C300FAE493A3F8E493A3C8C582C8CAC583CA2B
:1029D300F0A3C8C582C8CAC583CADFE9DEE780BEE3
:01317B000053
:0D08FD00E6FB08E6F908E6FA08E6CBF8226B
:0C090A00E0F8A3E0F9A3E0FAA3E0FB2270
:0D091600E2FB08E2F908E2FA08E2CBF82261
:10092300E493F8740193F9740293FA740393FB222A
:00000001FF
