:0B31D900496E6974696E672E2E2E008F
:102E3300122F8E7F017E00122CD212303C122A4FA9
:102E43007BFF7A3179D97D017F01122D237F807E2B
:102E530025122F6012318A1230EA122C2C122FBB4A
:072E63007F647E00022CD207
:1030CB009000307401F0122E337FF47E01122CD25B
:0F30DB001231251216977FC87E00122CD280F476
:100960000000000000000000000000000000000087
:10097000000000F80000000000000033300000001C
:1009800000100C06100C0600000000000000000023
:1009900040C07840C0784000043F04043F04040095
:1009A000007088FC08300000001820FF211E0000A5
:1009B000F008F000E018000000211C031E211E00BA
:1009C00000F00888700000001E2123241927211040
:1009D00010160E00000000000000000000000000E3
:1009E000000000E01804020000000007182040008A
:1009F00000020418E000000000402018070000007A
:100A0000404080F0804040000202010F01020200DD
:100A1000000000F0000000000101011F01010100C1
:100A2000000000000000000080B070000000000026
:100A300000000000000000000001010101010101AF
:100A40000000000000000000003030000000000046
:100A5000000000008060180400601806010000001B
:100A600000E010080810E000000F102020100F0018
:100A7000001010F8000000000020203F202000009F
:100A800000700808088870000030282422213000F7
:100A900000300888884830000018202020110E00FF
:100AA0000000C02010F8000000070424243F2400A8
:100AB00000F80888880808000019212020110E007D
:100AC00000E0108888180000000F112020110E008F
:100AD00000380808C83808000000003F0000000087
:100AE0000070880808887000001C222121221C0048
:100AF00000E010080810E0000000312222110F0071
:100B0000000000C0C0000000000000303000000005
:100B10000000008000000000000080600000000075
:100B2000000080402010080000010204081020008E
:100B300040404040404040000404040404040400D9
:100B4000000810204080000000201008040201006E
:100B5000007048080808F00000000030360100006E
:100B6000C030C828E810E0000718272423140B0021
:100B70000000C038E0000000203C2302022738209B
:100B800008F8888888700000203F202020110E007F
:100B9000C030080808083800071820202010080076
:100BA00008F808080810E000203F202020100F005F
:100BB00008F88888E8081000203F2020232018002B
:100BC00008F88888E8081000203F20000300000093
:100BD000C03008080838000007182020221E020034
:100BE00008F808000008F808203F210101213F20F3
:100BF000000808F8080800000020203F202000001E
:100C000000000808F8080800C08080807F0000000D
:100C100008F888C028180800203F20012638200046
:100C200008F8080000000000203F202020203000AD
:100C300008F8F800F8F80800203F003F003F2000C7
:100C400008F830C00008F808203F200007183F00CF
:100C5000E01008080810E0000F10202020100F00FE
:100C600008F808080808F000203F210101010000F1
:100C7000E01008080810E0000F18242438504F0036
:100C800008F8888888887000203F2000030C3020F6
:100C900000708808080838000038202121221C0034
:100CA000180808F8080818000000203F200000007D
:100CB00008F808000008F808001F202020201F0066
:100CC0000878880000C83808000007380E010000C6
:100CD000F80800F80008F800033C0700073C030090
:100CE000081868808068180820302C03032C3020F6
:100CF0000838C800C83808000000203F2000000065
:100D000010080808C83808002038262120201800BC
:100D1000000000FE020202000000007F4040400090
:100D2000000C30C000000000000000010638C000C8
:100D300000020202FE000000004040407F00000070
:100D40000000040202020400000000000000000095
:100D50000000000000000000808080808080808093
:100D6000000202040000000000000000000000007B
:100D700000008080808000000019242222223F2071
:100D800008F8008080000000003F112020110E00B4
:100D90000000008080800000000E11202020110043
:100DA000000000808088F800000E112020103F20F5
:100DB0000000808080800000001F22222222130079
:100DC000008080F0888888180020203F20200000C4
:100DD0000000808080808000006B94949493600079
:100DE00008F8008080800000203F210000203F2084
:100DF00000809898000000000020203F2020000084
:100E0000000000809898000000C08080807F000073
:100E100008F8000080808000203F24022D30200050
:100E2000000808F8000000000020203F20200000FB
:100E30008080808080808000203F20003F20003F15
:100E40008080008080800000203F210000203F2023
:100E50000000808080800000001F202020201F00D4
:100E6000808000808000000080FFA12020110E0003
:100E70000000008080808000000E112020A0FF80F4
:100E8000808080008080800020203F2120000100A1
:100E900000008080808080000033242424241900F6
:100EA000008080E0808000000000001F2020000003
:100EB0008080000000808000001F202020103F2044
:100EC000808080000080808000010E3008060100D4
:100ED00080800080008080800F300C030C300F0079
:100EE00000808000808080000020312E0E312000A4
:100EF000808080000080808080818E7018060100D4
:100F000000808080808080000021302C22213000F1
:100F100000000000807C020200000000003F404012
:100F200000000000FF00000000000000FF000000C3
:100F30000002027C800000000040403F00000000F2
:100F4000000601010202040400000000000000008D
:0931F800EF6003D2A522C2A5225A
:09320100EF6003D2A422C2A42252
:102ED000E4900031F0A37420F07B017A0079317F17
:102EE00002121AE4E4900031F0A37410F07B017A2E
:102EF0000079317F02121AE47F011231F8023201A7
:0F31B0007F011232011231F81F1232010231F881
:0C31CD00E4FF1232010F1231F80232014F
:072E9E00AC071231B07F7890
:022EA500AE0776
:102EA700E4FDA8057480088002C313D8FC5EFF12F6
:102EB70032017F011231F81F1231F80DEDB408E22B
:092EC7007F011231F81F0231F8FD
:1031A000122E9EE4FF122EA5AF04122EA50231CDE1
:1030AB003EF583E5822DF582E43583F583E493FFCA
:1030BB00122E9E7F40122EA5AF04122EA50231CDEB
:063089001475F008A4FD1F
:10308F00AB05EF44B0FF1231A0EB54F0C4540F4422
:0C309F0010FF1231A0EB540FFF0231A013
:10312500E4FAAF02E4FD12308FE4FBE4FF1230BB9A
:0A3135000BEBB480F60AEAB408E8D8
:01313F00226D
:0D28A20090003DEBF090003BEFF0A3EDF057
:1028AF00EF1425E0FFED123089E490003EF0900028
:1028BF003EE0FDC39408502990003DE0FF3395E0C2
:1028CF00FEEFC4F8540FC868FFEEC454F048FE740E
:1028DF00602FF58274071230AB90003EE004F08059
:1028EF00CD90003BE025E014FFA3E0123089E49087
:1028FF00003EF090003EE0FDC39408502990003D4B
:10290F00E0FF3395E0FEEFC4F8540FC868FFEEC444
:10291F0054F048FE74682FF58274071230AB9000A4
:06292F003EE004F080CD43
:01293500227F
:102D2300900035EFF0A3EDF0A3EBF0A3EAF0A3E9F5
:012D3300F0AF
:102D3400E4A3F0900037E0FBA3E0FAA3E0F9A3E0FA
:102D4400F582758300120625FB601B900035E0FFB9
:102D540090003AE0FE900036E02EFD1228A290008A
:062D64003AE004F080CD0E
:012D6A002246
:102A4F00122ED07FAE1231A07FD51231A07F80120F
:102A5F0031A07FA81231A07F3F1231A07FD3123156
:102A6F00A0E4FF1231A07F401231A07FA11231A04C
:102A7F007FC81231A07FDA1231A07F121231A07FEE
:102A8F00811231A07FCF1231A07FD91231A07FF1F7
:102A9F001231A07FDB1231A07F301231A07FA41240
:102AAF0031A07FA61231A07F8D1231A07F14123179
:092ABF00A07FAF1231A002312505
:102808003078255800555000444F574E00535049D2
:102818004E4C454654005350494E5249474854007F
:102828005350494E4C454654203930005350494E78
:102838005249474854203930004C45465420467286
:102848006F6E740052494748542046726F6E740088
:1028580053544F5000534F554E44004C4947485429
:102868000030004C454E3A2053686F7274004C4556
:102878004E3A204E6F726D616C004C454E3A204CBA
:102888006F6E6700474F20474F20474F0053746FC4
:0A289800700044454641554C5400C1
:0931E400410088004200760064FD
:1030EA00A2B3E433900032F09000317401F0FB7A1D
:0E30FA000079317F03121AE4D28AD2AAD2AF33
:0131080022A4
:030013000223685D
:10236800C0E0C0F0C083C082C0D075D000C000C03B
:1023780001C002C003C004C005C006C007C2AF90B8
:102388000070E4F0C2A830B303022494900075747E
:102398005FF020B318900075E0D39400400F7F647D
:1023A8007E00122D6B900075E014F080E520B303D9
:1023B8000224879000757432F030B318900075E0ED
:1023C800D39400400F7F647E00122D6B900075E05F
:1023D80014F080E5900089E4F090008AE4F0900021
:1023E800757406F020B318900075E0D39400400F80
:1023F8007F647E00122D6B900075E014F080E590EC
:1024080000757437F030B32A900075E0D39400401B
:10241800217F647E00122D6B900070E004F0900024
:1024280075E014F0900070E0D3942340D8D2A8024D
:1024380024CD900089E0FF2471F582E43400F5830F
:10244800E0FEC313F0900070E0C39408400E74716E
:102458002FF582E43400F583E04480F0900070E4C6
:10246800F090008AE004F0E0C3940850030223E6E9
:10247800900089E004F0E0C3940450030223E19043
:102488000074E0F4FF900073E06F7039900073E01F
:10249800900088F012312590000374FFF0A374288F
:1024A800F0A37408F0900088E0900006F07B017AB1
:1024B800007978120FB57B017A0079787D017F0366
:1024C800122D23D2AFD007D006D005D004D003D028
:1024D80002D001D000D0D0D082D083D0F0D0E0326A
:10169700900073E01208D7171907172A0917F40CD7
:1016A70017680D16E615174716180D1817D81917C6
:1016B700A44017084316F74417894516D54617C59A
:1016C70047185F4A18405218265E0000186E7D982A
:1016D7007C08E4FF1224E87BFF7A28790D80707D6F
:1016E700987C087F011224E87BFF7A287910805FB5
:1016F7007D047C067F041224E87BFF7A2879158015
:101707004E7D047C067F051224E87BFF7A28791E2C
:10171700803D7D987C087F041224E87BFF7A287936
:1017270028800F7D987C087F051224E87BFF7A28A4
:1017370079347D017F01122D237F907E0102185A93
:101747007D987C087F021224E87BFF7A2879417D07
:10175700017F01122D23900076E0FEA3E0FF02181F
:101767005A7D987C087F031224E87BFF7A28794CFE
:101777007D017F01122D23900076E0FEA3E0FF029A
:10178700185AE4FDFC7F061224E87BFF7A28795873
:101797007D017F01122D231225F90218BF7BFF7AE5
:1017A70028795D7D017F01122D237F011231BF7FD3
:1017B700C87E00122CD2E4FF1231BF0218BF7BFF94
:1017C7007A2879637D017F01122D2312000E0218FA
:1017D700BF7D987C08E4FF1224E87BFF7A287969AB
:1017E7007D017F01122D237FE87E0380667BFF7AD0
:1017F70028796B7D017F02122D23900076E4F0A3F8
:101807007432F00218BF7BFF7A2879767D017F0258
:10181700122D23900076E4F0A37464F00218BF7BC6
:10182700FF7A2879827D017F02122D23900076743A
:1018370001F0A374F4F00218BF7D987C08E4FF124E
:1018470024E87BFF7A28798C7D017F01122D237F85
:10185700487E0D122CD280587BFF7A2879957D011E
:101867007F01122D2380491231257BFF7A28799A2F
:101877007D017F01122D23900076E0FEA3E08EF01C
:101887001208FD189A003218A2006418AA01F40081
:101897000018B77BFF7A28796B800E7BFF7A28794F
:1018A7007680067BFF7A2879827D017F02122D23BD
:1018B700E4FDFC7F061224E8E4900089F09000899B
:1018C700E0FFC39404501474712FF582E43400F5DB
:0C18D70083E4F0900089E004F080E2223D
:10002600463A31004C3A3120463A30004C3A3020BC
:04003600463A300016
:102FBB009000327440F09000317401F0FB7A00798C
:102FCB00317F02121AE49000327480F09000317459
:0C2FDB0001F0FB7A0079317F02021AE459
:102DF200900035EBF0A3EAF0A3E9F07D407F0212E8
:102E02002E6AE4F933FF900035E0FBA3E0FAA3E079
:102E1200C98FF01207137D807F02122E6AE4F93304
:102E2200FF900038E0FBA3E0FAA3E0C98FF00207AD
:012E3200138C
:1025F900900031E4F0A304F0A3E4F0A304F0900008
:10260900387401F0A37400F0A37433F07B017A00ED
:102619007931122DF2900033E07002A3E070257B2E
:10262900FF7A0079267D017F01122D237D987C0890
:102639007F051224E87FC27E01122CD27D987C0886
:102649007F06805D900031E07002A3E07021900068
:1026590033E07004A3E0640170157BFF7A00792AE6
:102669007D017F01122D237DE07C067F038032905E
:102679000031E07004A3E064017029900033E07038
:1026890004A3E06401701D7BFF7A0079327D017F2C
:1026990001122D237F647E00122CD27DE07C067FFF
:0E26A900021224E87F327E00122CD202260795
:10318A009000327410F0E4900031F07B017A0079FB
:06319A00317F03021AE47C
:0E31BF00EF7D107F037003023012122F3022BA
:103109009000397403F0A3743FF07B017A00793998
:0C311900E4FF121AE47D3FE4FF023012D4
:10303C00E4900031F0A3F0A304F0E4A3F0A3F0A318
:10304C0074F7F0A3745DF0A37401F0FB7A0079318E
:07305C00FF122026023109DA
:10306300EF245DFDEE34F7FCC3E49FFFE49EC2AFA3
:103073009000D7F0A3EFF0AE04AF059000D5EEF0CB
:05308300A3EFF0D2AF45
:013088002225
:03001B00022DAF04
:102DAF00C0E0C083C082C0D075D000C004C0053061
:102DBF0084139000D7E0FCA3E0FDECF58D8D8BC262
:102DCF0084C28580119000D5E0FCA3E0FDECF58D69
:102DDF008D8BD284D285D005D004D0D0D082D08331
:032DEF00D0E032FF
:1024E800900039EFF0A3ECF0A3EDF0C394F4EC9472
:1024F80001500A90003A7401F0A374F4F090003A85
:10250800E0FEA3E0FFE4FCFD7BA27A08F9F8C31221
:10251800080E500A90003A7408F0A374A2F09000D4
:1025280039E0B4070040030225DC902539F8282853
:102538007302254E0225570225670225770225805A
:102548000225970225B57D08E4FF12301280177D19
:1025580008E4FF122F307D04E4FF123012803E7D24
:1025680008E4FF122F307D04E4FF122F3080177D1E
:1025780008E4FF123012803C7D08E4FF122F307D02
:1025880004E4FF1230127D01E4FF12301280337D23
:1025980008E4FF1230127D04E4FF122F307D01E4BD
:1025A800FF122F307D02E4FF123012801C7D08E4F8
:1025B800FF122F307D04E4FF122F307D01E4FF125B
:1025C8002F307D02E4FF122F3090003AE0FEA3E0A6
:1025D800FF0230637D08E4FF122F307D04E4FF1210
:1025E8002F307D01E4FF122F307D02E4FF122F30DF
:0125F80022C0
:103173004C4C20434C2043522052520030202030EC
:073183002020302020300065
:102C2C009000327401F0900031F0FB7A0079317F22
:102C3C0002121AE49000327402F090003114F0FB8E
:102C4C007A0079317F02121AE49000327404F09009
:102C5C0000317401F0FB7A0079317F02121AE49092
:102C6C0000327408F09000317401F0FB7A00793175
:052C7C007F02021AE4D2
:102B4000900039EBF0A3EAF0A3E9F07D017F0212D7
:102B50002E6AE4F933FF900039E0FBA3E0FAA3E02A
:102B6000C98FF01207137D027F02122E6AE4F93337
:102B7000FF90003CE0FBA3E0FAA3E0C98FF012074E
:102B8000137D047F02122E6AE4F933FF90003FE0C8
:102B9000FBA3E0FAA3E0C98FF01207137D087F02C0
:102BA000122E6AE4F933FF900042E0FBA3E0FAA39F
:072BB000E0C98FF0020713DA
:05000E00121CAD80FB97
:101E6D00E49000B8F0A3F0A3F0A3F0A3F0A3F0A3C7
:101E7D00F0A3F07B0190003C04F0A37400F0A37478
:101E8D00BAF0A3EBF0A37400F0A374BCF0A3EBF0D5
:101E9D00A37400F0A374BEF07A0079B8122B4090B1
:101EAD0000B8E07004A3E06401702D9000BAE070FA
:101EBD0004A3E0640170219000BCE07004A3E06411
:101ECD000170159000BEE07004A3E0640170097DFF
:101EDD004C7C047F031224E89000B8E07002A3E06C
:101EED0070269000BAE07002A3E0701C9000BCE078
:101EFD007002A3E070129000BEE07002A3E07008C3
:101F0D007D4C7C04FF1224E89000B8E07004A3E03F
:101F1D00640170289000BAE07002A3E0701E90007A
:101F2D00BCE07002A3E070149000BEE07004A3E06A
:101F3D00640170087DE07C06FF1224E89000B8E093
:101F4D007004A3E06401702B9000BAE07002A3E06E
:101F5D0070219000BCE07004A3E064017015900046
:101F6D00BEE07004A3E0640170097D287C057F024A
:101F7D001224E89000B8E07004A3E06401702B9087
:101F8D0000BAE07004A3E06401701F9000BCE07023
:101F9D0002A3E070159000BEE07004A3E064017030
:101FAD00097D287C057F031224E89000B8E07004B9
:101FBD00A3E06401702B9000BAE07004A3E064010B
:101FCD00701F9000BCE07004A3E0640170139000DA
:101FDD00BEE07002A3E070097D287C057F05122408
:101FED00E89000B8E07002A3E0702D9000BAE070A8
:101FFD0004A3E0640170219000BCE07004A3E064D0
:10200D000170159000BEE07004A3E0640170097DBD
:08201D00287C057F041224E871
:012025002298
:101CAD00E4900031F0A3F0A3F0A3F0A3F0A3F0A310
:101CBD00F0A3F07B0190003C04F0A37400F0A3743A
:101CCD0033F0A3EBF0A37400F0A37435F0A3EBF0A5
:101CDD00A37400F0A37437F07A007931122B409081
:101CED000031E07004A3E06401702D900033E070CA
:101CFD0004A3E064017021900035E07004A3E0645A
:101D0D00017015900037E07004A3E0640170097D47
:101D1D00287C057F031224E8900031E07002A3E0D7
:101D2D007026900033E07002A3E0701C900035E047
:101D3D007002A3E07012900037E07002A3E070080B
:101D4D007D287C05FF1224E8900031E07004A3E0AB
:101D5D0064017028900033E07002A3E0701E9000C3
:101D6D0035E07002A3E07014900037E07004A3E03A
:101D7D00640170087D287C05FF1224E8900031E095
:101D8D007004A3E06401702B900033E07002A3E0B7
:101D9D007021900035E07004A3E06401701590008F
:101DAD0037E07004A3E0640170097D287C057F0293
:101DBD001224E8900031E07004A3E06401702B90D0
:101DCD000033E07004A3E06401701F900035E070F3
:101DDD0002A3E07015900037E07004A3E064017079
:101DED00097D287C057F031224E8900031E0700402
:101DFD00A3E06401702B900033E07004A3E0640154
:101E0D00701F900035E07004A3E064017013900022
:101E1D0037E07002A3E070097D287C057F05122450
:101E2D00E8900031E07002A3E07034900033E07070
:101E3D0004A3E064017028900035E07004A3E06411
:101E4D0001701C900037E07004A3E0640170107DF8
:0F1E5D00287C057F041224E87F647E00122CD2BB
:011E6C002253
:10293600E49000C0F0A3F0A3F0A3F0A3F0A3F0A3EB
:10294600F0A3F07B0190003C04F0A37400F0A374A4
:10295600C2F0A3EBF0A37400F0A374C4F0A3EBF0F1
:10296600A37400F0A374C6F07A0079C0122B4090CD
:1029760000C0E07002A3E070207D287C057F021273
:1029860024E87F017E00122CD27D287C05E4FF120C
:1029960024E87F0A7E00022CD27BFF7A3179737D90
:1029A600017F01122D237BFF7A31797F7D017F0222
:0C29B600122D237D4C7C047F031224E8CA
:0129C20022F2
:102F60009000317440F0A37402F0E4FCFDA3120859
:102F70007A9000387401F0E4A3F0A304F0A3F0A366
:0E2F80007440F07B017A0079317F010213D397
:052AC8009000D0EDF0CC
:102ACD00E4A3F0A3EBF0A3EAF0A3E9F09000D0E0CB
:102ADD00FFA3E0FEC39F5055C2AF900047E0FF90AB
:102AED000046E0B50704D2AF8043900046E024488D
:102AFD00F582E43400F583E0FF9000D2E0FBA3E023
:102B0D00FAA3E0F98E82758300EF120664900046F9
:102B1D00E02401FFE433FE7C007D28120686AF051C
:102B2D00EDF0D2AF009000D1E004F0809F9000D185
:022B3D00E0FFB7
:012B3F002273
:102F00009000DDEBF0A3EAF0A3E9F0E4FFEFC39D4E
:102F1000501D9000DDE0FBA3E0FAA3E0F98F82757D
:0F2F20008300120625F5993099FDC2990F80DEC6
:012F2F00227F
:03002300022BB7F6
:102BB700C0E0C0F0C083C082C0D075D000C000C0E4
:092BC70003C004C005C006C007EC
:102BD000309842AB99C298900047E02401FFE4335B
:102BE000FE7C007D28120686AF05900046E06D60F1
:102BF00024AF03A3E02448F582E43400F583EBF02E
:102C0000900047E02401FFE433FE7C007D2812069B
:052C100086AF05EDF0A8
:102C1500D007D006D005D004D003D000D0D0D082C4
:072C2500D083D0F0D0E032B3
:080003008F993099FDC299228A
:1031400025640025302E3166434D0000000000004C
:0B315000000000000000000000000074
:102FE7009000E47440F09000E37403F07B017A00F2
:102FF70079E37F01121AE49000E47401F09000E392
:0B300700F0FB7A0079E37F80021AE4FE
:10315B00E49000C9F0A37448F0E49000CCF07B013C
:08316B007A0079C8FF0221C9B6
:1018E3001231EE90008B12087A788F7C007D017B99
:1018F300FF7A31794B7E007F101205E690009F122C
:101903000886000000009000D9E0F8A3E0F9A3E006
:10191300FAA3E0FB90008BE0FCA3E0FDA3E0FEA3B1
:10192300E0C39BFFEE9AFEED99FDEC98FCE47B642B
:10193300FAF9F8D312080E4008E4FFFE7D807CBF5D
:101943002290008BE0FCA3E0FDA3E0FEA3E0FF9068
:1019530000D912087A90000374FFF0A37431F0A346
:101963007440F090008BE0FCA3E0FDA3E0FEA3E055
:10197300FF90000612087A7B017A00798F120FB567
:101983007B017A00798F7D017F02122D237D407FB9
:10199300011230127F017E00122CD27D407F011292
:1019A3002F307D017F80122E6A40571231EE900056
:1019B3008B12087A9000D9E0F8A3E0F9A3E0FAA328
:1019C300E0FB90008BE0FCA3E0FDA3E0FEA3E0C3FB
:1019D3009BFFEE9AFEED99FDEC98FCE47B64FAF92B
:1019E300F8C312080E50BB90008BE0FCA3E0FDA3EC
:1019F300E0FEA3E0FF9000D912087AE4FFFEFD7C2D
:101A0300C022E4F5F9F5E9D2DE7D017F80122E6A6A
:101A130050581231EE90008B12087A9000D9E0F8FA
:101A2300A3E0F9A3E0FAA3E0FB90008BE0FCA3E0C2
:101A3300FDA3E0FEA3E0C39BFFEE9AFEED99FDEC50
:101A430098FCE47B64FAF9F8C312080E50BB9000CB
:101A53008BE0FCA3E0FDA3E0FEA3E0FF9000D9121E
:101A6300087AE4FFFE7D407CC022AFF9EFFEADE9CA
:101A7300EDFFE4F5F9F5E9C2DEAD07AC061201E9C5
:101A83007B727A1C7997783C12003EE4FBFAF97872
:101A93004012014790009F12087A90000374FFF0F0
:101AA300A37431F0A37443F090009FE0FCA3E0FD26
:101AB300A3E0FEA3E0FF90000612087A7B017A0000
:101AC300798F120FB57B017A00798F7D017F011227
:101AD3002D2390009FE0FCA3E0FDA3E0FEA3E0FF25
:011AE30022E0
:101AE400EFD3940540057E007F012212060CFDD33E
:101AF400940340057E007F0222EF7041ED700B904D
:101B04000001120625F45293529412060CB4010BF0
:101B14009000011206254293F4529412060CFEB46E
:101B2400020A90000112062542934294EEB4030D7A
:101B3400900001120625FEF45293EE4294EF6401E4
:101B4400704312060CFE700B900001120625F4522D
:101B5400915292EEB4010B9000011206254291F4C9
:101B6400529212060CB4020A900001120625429108
:101B7400429212060CB4030D900001120625FEF4E5
:101B84005291EE4292EF6402704312060CFE700B07
:101B9400900001120625F452955296EEB4010B9072
:101BA40000011206254295F4529612060CB4020A5C
:101BB4009000011206254295429612060CB4030DBC
:101BC400900001120625FEF45295EE4296EF64034E
:101BD400704312060CFE700B900001120625F4529D
:101BE400B152B2EEB4010B90000112062542B1F4D9
:101BF40052B212060CB4020A90000112062542B138
:101C040042B212060CB4030D900001120625FEF434
:101C140052B1EE42B2EF6404704312060CFE700B34
:101C2400900001120625F452B352B4EEB4010B90A5
:101C3400000112062542B3F452B412060CB4020A8F
:101C440090000112062542B342B412060CB4030DEF
:101C5400900001120625FEF452B3EE42B4EF64057F
:101C6400704312060CFF700B900001120625F4520B
:101C7400C952CAEFB4010B90000112062542C9F4FF
:101C840052CA12060CB4020A90000112062542C977
:101C940042CA12060CB4030D900001120625FFF48B
:091CA40052C9EF42CAE4FEFF221E
:10301200EF7003ED4280EFB40103ED4290EFB40292
:1030220003ED42A0EFB40303ED42B0EFB40403EDAD
:0A30320042C0EFB40503ED42C822CE
:102F3000EF7004EDF45280EFB40104EDF45290EF21
:102F4000B40204EDF452A0EFB40304EDF452B0EF78
:102F5000B40404EDF452C0EFB40504EDF452C822F9
:102E6A00EF7004AE808026EFB40104AE90801EEFAE
:102E7A00B40204AEA08016EFB40304AEB0800EEF25
:102E8A00B40404AEC08006EFB40507AEC8EE5D24F4
:032E9A00FF22C351
:012E9D002212
:02001E00F8CD1B
:102F8E009000317401F0A3F0A3F0A3F0E4A3F0904D
:102F9E00001E93FF740193900036CFF0A3EFF0A3C1
:0D2FAE007401F0FB7A007931E4FF02202667
:03000B00022C8143
:102C8100C0E0C0F0C083C082C0D075D000C000C019
:102C910004C005C006C00790001EE493FE740193B2
:102CA100F58AEEF58C780D120832EF2401FFE43E2F
:102CB100FEE43DFDE43CFC780D12086ED007D00621
:102CC100D005D004D000D0D0D082D083D0F0D0E0D5
:012CD10032D0
:0931EE00C2AF780D120832D2AF15
:0131F70022B5
:040016007F03DFFE87
:01001A0022C3
:073213000000007F34DFFE24
:01321A002291
:08320A007F037E1ADEFEDFFCEB
:013212002299
:102D6B00AD07AC06C3ED9464EC9400400D12320A2F
:102D7B00749C2DFD74FF3CFC80EAC3ED940AEC942B
:102D8B0000400D12321374F62DFD74FF3CFC80EAEB
:102D9B00D3ED9400EC9400400A120016ED1D70F078
:042DAB001C80ED2279
:082CD200900039EEF0A3EFF0D1
:102CDA001231EE90003B12087A1231EE90003F1248
:102CEA00087A90003BE0F8A3E0F9A3E0FAA3E0FB3E
:102CFA00A3E0FCA3E0FDA3E0FEA3E0C39BFBEE9AE6
:102D0A00FAED99F9EC98F8900039E0FEA3E0FFE4B7
:082D1A00FCFDC312080E40C1CC
:012D2200228E
:10202600AD07EDD3940340057E007F0122ED6003EA
:102036000220BCC28C900002120625B40104D2A96B
:102046008002C2A9900001120625B40104D2B9800B
:1020560002C2B912060CFCD3940340030221C4E564
:102066008954FC4CF589900003120625FFB4010340
:10207600538E7FEF7003438E80EFB40205438904CD
:1020860080035389FB900004120625B40105438F93
:10209600018003538FFE9000051206DBE5F0F58CF8
:1020A6009000051206DBF58A900007120625B4019A
:1020B60002D28C0221C0ED6401600302214BC28E64
:1020C600900002120625B40104D2AB8002C2AB9086
:1020D6000001120625B40104D2BB8002C2BB12065F
:1020E6000CFCC3940340030221C4ECC454F0FFE586
:1020F6008954CF4FF589900003120625FFB40103DA
:10210600538EBFEF7003438E40EFB4020543894000
:1021160080035389BF900004120625B40105438F3E
:10212600028003538FFD9000051206DBE5F0F58D66
:102136009000051206DBF58B900007120625B40108
:1021460002D28E8075ED64027074538EEF90000299
:10215600120625B4010543AF04800353AFFB90007C
:1021660003120625FDD3940240028052EDB401030A
:10217600538EFB9000031206257003438E049000D5
:1021860003120625B40205438E088003538EF7908A
:102196000004120625B40105438F048003538FFB08
:1021A6009000051206DBFDACF0ECF5D68DD790005D
:1021B60007120625B40103438E10E4FEFF227E00BB
:0321C6007F022273
:1026B700EF7034D3ED9450EC940F40047C0F7D50B1
:1026C700C3ED9450EC940050047C007D50C2DE9022
:1026D70000ACECF0A3EDF0C374A09D9000A7F074DC
:1026E7000F9C9000A68073EF64017034D3ED94685B
:1026F700EC940B40047C0B7D68C3ED9450EC940084
:1027070050047C007D50C2DE9000AEECF0A3EDF0EB
:10271700C374B89D9000A9F0740B9C9000A8803AF0
:10272700EF64027038D3ED9480EC940740047C0783
:102737007D80C3ED9450EC940050047C007D50C222
:10274700DE9000B0ECF0A3EDF0AE04FFC374D09FB1
:0E2757009000ABF074079E9000AAF0D2DE2234
:1021C9009000E0EBF0A3EAF0A3E9F0AD07EDD394BA
:1021D900034003022367ED6403704CC2DEF5F9F591
:1021E900E99000E0E0FBA3E0FAA3E0F912060CFF96
:1021F900E5A254CF4FF5A2900001120625FFE5D9BB
:1022090054F14FF5D99000041206255401FFE5D980
:1022190054FE4FF5D9900005120625B40104D2BF2A
:102229008002C2BFD2DE229000E0E0FBA3E0FAA365
:10223900E02404F9E43AFA12060C543112065290D9
:1022490000E0E0FBA3E0FAA3E0F990000212062502
:10225900C39448400FE92404F9E43AFA12060C54ED
:10226900CF120652ED704F9000E0E0FBA3E0FAA315
:10227900E0F9900004120625FF900002120625FEDF
:102289004FF5DA900003120625FFE5F2543F4FF5AA
:10229900F29000061206DBFBAAF09000ACEAF0A36C
:1022A900EBF0C2099000A3EEF09000B2EAF0A3EBC4
:1022B900F0F5EAEAF5FAED6401704F9000E0E0FB11
:1022C900A3E0FAA3E0F9900004120625FF900002AA
:1022D900120625FE4FF5DB900003120625FFE5F3F4
:1022E900543F4FF5F39000061206DBFBAAF090006D
:1022F900AEEAF0A3EBF0C20A9000A4EEF09000B4AD
:10230900EAF0A3EBF0F5EBEAF5FBED6402704F9010
:1023190000E0E0FBA3E0FAA3E0F99000041206252F
:10232900FF900002120625FE4FF5DC90000312060D
:1023390025FFE5F4543F4FF5F49000061206DBFD46
:10234900ACF09000B0ECF0A3EDF0C20B9000A5EE5C
:0F235900F09000B6ECF0A3EDF0F5ECECF5FC2203
:03003B0002276534
:10276500C0E0C083C082C0D075D000C006C00730AD
:10277500D82AC2D830A5059000AC80039000A6E009
:10278500FEA3E0FF9000B3E02FF09000B2E03EF032
:102795009000B2E0FEA3E0F5EAEEF5FA30D92AC2E0
:1027A500D930A6059000AE80039000A8E0FEA3E016
:1027B500FF9000B5E02FF09000B4E03EF09000B43B
:1027C500E0FEA3E0F5EBEEF5FB30DA2AC2DA30A73E
:1027D500059000B080039000AAE0FEA3E0FF900002
:1027E500B7E02FF09000B6E03EF09000B6E0FEA313
:1027F500E0F5ECEEF5FCD007D006D0D0D082D08342
:03280500D0E032EE
:1013D30090003FEBF0A3EAF0A3E9F090003EEFF0BA
:1013E3006401600302158CA3E0FBA3E0FAA3E0F918
:1013F30012060CD394C040037F022290000A120607
:1014030025B40104D2BC8002C2BC12060CFFE598CD
:10141300543F4FF598EF64C06008EF6440600302E7
:10142300150690000212083E7F007E607D547C000A
:1014330012076E90004212087AE4FFFE7D01FC90D1
:101443000042E0F8A3E0F9A3E0FAA3E0FBC312082B
:101453000E40037F0222900042E0F8A3E0F9A3E0EC
:10146300FAA3E0FBC3E49BFFE49AFE740199FDE455
:1014730098FC90004212087A90003FE0FBA3E0FA48
:10148300A3E0F9900001120625FB64017038C28EB7
:10149300538EFE5389BF5389CF438E40900042E061
:1014A300FCA3E0FDA3E0FEA3E0FF780812081F8F72
:1014B3008D900042A3A3A3E0F58BC2AB5389BF5326
:1014C3008FFDD28E8076EB64027035538EEF438EA0
:1014D30001538EF7438E04900042E0FCA3E0FDA38A
:1014E300E0FEA3E0FF780812081F8FD6900042A306
:1014F300A3A3E0F5D753AFFB538EF7438E10803C85
:101503007F022290003FE0FBA3E0FAA3E0F912067A
:101513000CFF7013900008120625B40105438E20BA
:10152300801A538EDF8015EFB480119000081206E5
:1015330025B40105438780800353877F90003FE0F4
:10154300FBA3E0FAA3E0F9900009120625B4010415
:10155300D2AC8002C2AC900007120625B40104D2BB
:101563009C8002C29C90000B12062554C0FFE5A28A
:10157300543F4FF5A290000C120625B40105439782
:101583001080035397EF7F002290003EE0640260D7
:1015930003021694A3E0FBA3E0FAA3E0F912060CFE
:1015A300FF64C06008EF6440600302165490000AB1
:1015B300120625B4010543B501800353B5FE120697
:1015C3000CB4C005439A808003539A7F90000212A3
:1015D300083E7F007E607D547C0012076E900042BF
:1015E30012087AE4FFFE7D01FC900042E0F8A3E0DC
:1015F300F9A3E0FAA3E0FBC312080E40037F022223
:10160300900042E0F8A3E0F9A3E0FAA3E0FBC3E40F
:101613009BFFE49AFE740199FDE498FC900042124A
:10162300087A538EEF538EF7438E04900042E0FC0A
:10163300A3E0FDA3E0FEA3E0FF780812081F8FD606
:10164300900042A3A3A3E0F5D753AFFB438E1080D2
:10165300037F022290003FE0FBA3E0FAA3E0F990AE
:101663000009120625B4010543AF01800353AFFE01
:10167300900007120625B40105439A108003539A7C
:10168300EF90000B1206255401FFE5BA54FE4FF507
:03169300BA7F001B
:011696002231
:10003E00EC4D6011E8497017ED33EC3304600DE4BC
:10004E00FCFFFEFD22E933E8330470F8020257127A
:10005E00022258046009E4CC24815006285009027B
:10006E00026128400302025EC0E0EB4A7044B98090
:10007E0006D0E0FB02024DEF4E701CBD8008EBFF78
:10008E00EAFEE9FD80EBE98DF0A4FEE5F002012722
:10009E00E9CDF9EAFEEBFFEF89F0A4FCE5F0CE899D
:1000AE00F0A42EFFE435F0CD89F0A42DFEE435F05A
:1000BE008067EF4E7005BD80D780C3EF8BF0A4AC88
:1000CE00F0EE8BF0A42CFCE435F0F8EF8AF0A42CC3
:1000DE00E5F038FCE433CB8DF0A42CFCE5F03BF8D6
:1000EE00EE8AF0A42CFCE5F038F8E433CF89F0A4C6
:1000FE002CFCE5F038CF3400CE89F0A42FFFE5F0CC
:10010E003EFEE433C98DF0A42EFEE5F039CD8AF023
:10011E00A42FFFE5F03EFEE43DFD33D0E0FB50079B
:10012E000BBB000F020261EC2CFCEF33FFEE33FE33
:06013E00ED33FD02023961
:10014400020261EC5D046005E85904700302025781
:10015400120222580460F6EC4860F2EC7004FDFED2
:10016400FF22C860DB2481C85009C398600250068E
:1001740002025E9850CAF582E9294B4A7005AB82A7
:1001840002024D75F0007C1A7880C3EF9BEE9AED65
:1001940099400DC3EF9BFFEE9AFEED99FDE842F006
:1001A400DC23ACF0D0E0FFD0E0FED0E0FDAB822059
:1001B400E7101BEB60BAEC2CFCEF33FFEE33FEEDE3
:1001C40033FD020239E803F830E705C0F075F000AA
:1001D400EF2FFFEE33FEED33FD40B830E7C280AAC7
:1001E40075F020800E75F010800575F0087D007E96
:1001F400007F003392D530D503120800EC33401051
:10020400EF33FFEE33FEED33FDEC33FCD5F0ED229E
:0E021400E5F0247EA2D513CC92E7CDCEFF22DA
:100F5000E5082403F582E43400F583E005082290D7
:100F60000000300703900003E475F0011208B70297
:100F7000060C2000E97F2ED2008018EF540F249039
:100F8000D43440D4FF30040BEF24BFB41A00500314
:100F90002461FFE50960021509050CE50C700205E6
:100FA0000B30070E900000E475F0011208B7EF0255
:100FB00006520200037403D2078003E4C207F50857
:100FC0009000001208CEE4F509F50BF50CE5096078
:100FD000077F20120F9380F5750AFFC201C200C27D
:100FE00002C203C205C206C208120F5FFF700D30B5
:100FF00007057F00120FA4AF0CAE0B22B4255FC211
:10100000D5C204120F5FFF24D0B40A00501A75F045
:101010000A780930D50508B6FF0106C6A426F620D1
:10102000D5047002D20380D924CFB41A00EF500443
:10103000C2E5D204021296D20180C6D20080C0D28C
:101040000280BCD2D580BAD20580B47F20120F9323
:101050002002077401B5090040F1120F50FF120F72
:1010600093020FCDD208D2068095120F50FB120FBB
:1010700050FA120F50F94A4B700679947A137BFF9D
:1010800020022EE509602A7E008E827583001206FA
:101090002560060EEE650A70F0C2D5EBC0E0EAC02E
:1010A000E0E9C0E0EE1212F7D0E0F9D0E0FAD0E0CB
:1010B000FB12060CFF60AAEBC0E0EAC0E0E9C0E06A
:1010C000120F93D0E02401F9D0E03400FAD0E0FB15
:1010D000E50A0460DCD50AD98087D20280A2121208
:1010E000D960F7E50A70010412026CA90A600DE5E7
:1010F0000A600914F50A121381EF60F3EA30E7027F
:10110000F404C3995079EAF4250A0430E701E404B1
:10111000F50A800D1212D960C1EA050A250A1202E9
:101120006CEA90002FF030E701E4250A04D50A04A8
:10113000200501141212F7E4C0E012138190002F71
:10114000E0601320E70714F0120F7B802204F0D038
:10115000E014C0E07F00120F7BE50A6007120F72F7
:10116000150A800B300503120F72D0E0020FCDD0AC
:10117000E00480C41212D9609EE50A0412026C9049
:10118000002FEAF0E50A200502600104240412128F
:01119000F767
:1011910074FF04C0E0121381120F7BE50A200502DF
:1011A1006003120F72D0E0B50AE87F45120F8590F7
:1011B100002FE07F2B30E7047F2DF404C0E0120FF5
:1011C10093D0E075F00A84C0F0120F7CD0E0120FCA
:1011D1007C020FCD791080027908C206C20880080E
:1011E100D2D5790A8004790AC2D5E50A047002F5DC
:1011F1000AE4FAFDFEFF120F50FC7B0820011312D6
:101201000F50FD7B1030000A120F50FE120F50FFDD
:101211007B20EC3382D592D55013C3E43000069F76
:10122100FFE49EFEE42001039DFDE49CFCE4CBF879
:10123100C201EC700CCFCECDCCE824F8F870F3806D
:1012410017C3EF33FFEE33FEED33FDEC33FCEB332D
:10125100FB994002FB0FD8E9EB300105F8D0E0C45F
:1012610048B201C0E00AEC4D4E4F78207B0070C2BD
:10127100EAB50A0040BCC0E01212F9D0F0D0E0207B
:101281000104C4C0E0C4B201C0F0120F7CD0F0D59B
:10129100F0EB020FCD1208D7106A5311D558103B4D
:1012A1004C10374211D94F11E14411E1491050431B
:1012B10011E75511144611744510DE4713B450104F
:1012C1003F2D10432E10662B104723106420139DD1
:1012D1002A0FFF480000105EE50AB4FF03750A06F5
:1012E100120F50FC120F50FD120F50FE120F50FF43
:1012F1009000280202A9790AA2D520031430050919
:10130100B910020404B9080104A2D5200602500153
:10131100042002689202B509005034C0E07F2030F9
:1013210003197F30A20272067205500F121350C2C8
:1013310002C206C205C2087F30800F300503E9C032
:10134100E0120F93300503D0E0F9D0E0B509CC30BD
:1013510005177F30B9100C120F937F583004077FA7
:10136100788003B90803120F933002057F2D020F15
:10137100937F202008F87F2B2006F322920280CF52
:101381007F00B40700500B2428F582E43400F58374
:10139100E0FF22286E756C6C2900D201120F5030CB
:1013A10001F8C201780930D50108F6020FFF2D506E
:1013B100434958120F502403B405004001E490132F
:1013C100AF93120F84743A120F84D2037509040289
:0213D10011D534
:10022200E9D2E7C933E833F892D5EDD2E7CD33EC22
:0702320033FC5002B2D5229B
:10023900EC30E7100FBF000C0EBE00080DBD000426
:100249000BEB6014A2D5EB13FCED92E7FD2274FFD2
:10025900FCFDFEFF22E480F8A2D574FF13FC7D802B
:03026900E480EF3F
:10026C00F920E73624F950037907E4F42402FBE57E
:10027C0082158270021583DBF6E024FB501BE960CB
:10028C0014E4F0E582158270021583E004F0B40AE0
:0D029C0008E4F0D9EE7401F00A22C2D52268
:1002A900ED33EC3392D5FA602AB4FF33EDC2E77B24
:1002B900FF60067A0279CEE4227A0279D720D50442
:1002C9007A0279D2224E614E002B494E46002D49C1
:1002D9004E4600E47A08F0A3DAFC7B00740722C0DA
:1002E90083C082ECC0E0EDC0E0EEC0E0EFC0E0EA20
:1002F90075F010A4CAABF075F04DA42BFBE435F0F2
:10030900FCEA2410FAEB34C5FBEC34D9FCEDC2E766
:10031900FF75F056A4F42411C5F0F434C58FF0A488
:100329002AE5F03BE43CF020E7141204D6D0E0FFC4
:10033900D0E0FED0E0FDD0E0FC1201478014F404C7
:100349001204D6D0E0FFD0E0FED0E0FDD0E0FC12F0
:10035900003ED082D083E0FAEDD2E7CD33EC3324EE
:1003690082FBE4C3CF33CFCE33CECD33CD33DBF3F2
:100379007B0775F00A846004F0A31B0AE5F0F0A37B
:100389008FF0740AA4FFACF08EF0740AA42CFEACB2
:10039900F050010C8DF0740AA42CFDE435F0F0A3A3
:0503A900DBDE740722F9
:1003AE00020257E86480F8E933E83360110460F024
:1003BE00ED33EC337009E8FCE9FDEAFEEBFF2204B5
:1003CE0060DED3EB9FEA9EE99DE8C2E78CF0C2F7B0
:1003DE0095F0400CE8CCF8E9CDF9EACEFAEBCFFB7C
:1003EE0012022285D0F05804700320D5B3E80470B1
:1003FE00075002B2D502026192D5EC0460F7E4CC4C
:10040E00C0E0C398F8603B94186008400DD0E0FB44
:10041E00020239E4FBFAC9FC8028E830E406E4C99C
:10042E00FBE4CAFCE830E305E4C9CACBFCE8540798
:10043E006010F8C3E913F9EA13FAEB13FBEC13FCA3
:10044E00D8F130F52FC3E49CFCEF9BFFEE9AFEED46
:10045E0099FDD0E0FBEF4E4D4C701222DB030202F1
:10046E005EEC2CFCEF33FFEE33FEED33FDED30E7AB
:10047E00EB020239EF2BFFEE3AFEED39FDD0E0FB39
:10048E0050130BBB0003020261ED13FDEE13FEEFE2
:08049E0013FFEC13FC0202390C
:1004A6003F8000004120000042C80000447A00005E
:1004B600461C400047C35000497424004B189680E0
:1004C6004CBEBC205A0E1BCA6753C21C749DC5AED7
:1004D600FB60065407601C2323120504EB543860A6
:1004E600091204F01204FF12003EECF8EDF9EEFAE0
:1004F600EFCB22EB1204FF80F1543803241C900446
:10050600A6FE93FC0EEE93FD0EEE930ECE93FF2207
:030000000229C30F
:0C29C300787FE4F6D8FD758121022A0A15
:10051600E709F608DFFA8046E709F208DFFA803EC7
:1005260088828C83E709F0A3DFFA8032E309F608B4
:10053600DFFA8078E309F208DFFA807088828C831C
:10054600E309F0A3DFFA806489828A83E0A3F608D0
:10055600DFFA805889828A83E0A3F208DFFA804CAA
:1005660080D280FA80C680D4806980F28033801081
:1005760080A680EA809A80A880DA80E280CA8033EA
:1005860089828A83ECFAE493A3C8C582C8CCC58362
:10059600CCF0A3C8C582C8CCC583CCDFE9DEE78032
:1005A6000D89828A83E493A3F608DFF9ECFAA9F0B1
:1005B600EDFB2289828A83ECFAE0A3C8C582C8CC07
:1005C600C583CCF0A3C8C582C8CCC583CCDFEADE20
:1005D600E880DB89828A83E493A3F208DFF980CC82
:1005E60088F0EF60010E4E60C388F0ED2402B4047B
:1005F6000050B9F582EB2402B4040050AF23234522
:06060600822390056673DB
:10060C00BB010689828A83E0225002E722BBFE02EC
:09061C00E32289828A83E493221F
:10062500BB010CE58229F582E5833AF583E022508A
:1006350006E92582F8E622BBFE06E92582F8E222D4
:0D064500E58229F582E5833AF583E49322EE
:10065200BB010689828A83F0225002F722BBFE0187
:02066200F32281
:10066400F8BB010DE58229F582E5833AF583E8F0CC
:10067400225006E92582C8F622BBFE05E92582C878
:02068400F22260
:10068600BC000BBE0029EF8DF084FFADF022E4CC58
:10069600F875F008EF2FFFEE33FEEC33FCEE9DEC21
:1006A600984005FCEE9DFE0FD5F0E9E4CEFD22ED67
:1006B600F8F5F0EE8420D21CFEADF075F008EF2FB1
:1006C600FFED33FD4007985006D5F0F222C398FDA2
:0506D6000FD5F0EA223F
:1006DB00BB0110E58229F582E5833AF583E0F5F05D
:1006EB00A3E0225009E92582F886F008E622BBFE3A
:1006FB000AE92582F8E2F5F008E222E5832AF58380
:08070B00E993F5F0A3E9932244
:10071300BB010A89828A83F0E5F0A3F0225006F731
:0F07230009A7F01922BBFE06F3E5F009F319222E
:1007320075F008758200EF2FFFEE33FECD33CDCC7E
:1007420033CCC58233C5829BED9AEC99E582984001
:100752000CF582EE9BFEED9AFDEC99FC0FD5F0D6DE
:10076200E4CEFBE4CDFAE4CCF9A88222B800C1B908
:100772000059BA002DEC8BF084CFCECDFCE5F0CB46
:10078200F97818EF2FFFEE33FEED33FDEC33FCEB7F
:1007920033FB10D703994004EB99FB0FD8E5E4F93A
:1007A200FA227818EF2FFFEE33FEED33FDEC33FC27
:1007B200C933C910D7059BE99A4007EC9BFCE99A1B
:1007C200F90FD8E0E4C9FAE4CCFB2275F010EF2F60
:1007D200FFEE33FEED33FDCC33CCC833C810D70760
:1007E2009BEC9AE899400AED9BFDEC9AFCE899F89B
:0E07F2000FD5F0DAE4CDFBE4CCFAE4C8F9222E
:0E080000C3E49FFFE49EFEE49DFDE49CFC2209
:10080E00EB9FF5F0EA9E42F0E99D42F0E89C45F040
:01081E0022B7
:10081F00E8600FECC313FCED13FDEE13FEEF13FFB7
:03082F00D8F122DB
:0C083200E6FC08E6FD08E6FE08E6FF22F2
:10083E00BB010DE58229F582E5833AF5830209377E
:10084E005007E92582F802092ABBFE07E92582F83E
:10085E00020943E58229F582E5833AF583020950C0
:0C086E00ECF608EDF608EEF608EFF622B6
:0C087A00ECF0A3EDF0A3EEF0A3EFF022F1
:10088600A8828583F0D083D08212089D12089D121B
:10089600089D12089DE473E493A3C583C5F0C58340
:1008A600C8C582C8F0A3C583C5F0C583C8C582C8BC
:0108B600221F
:1008B700F8E0FBA3A3E0F925F0F0E58215827002CA
:0708C7001583E0FA38F0226E
:0908CE00EBF0A3EAF0A3E9F0222B
:1008D700D083D082F8E4937012740193700DA3A3B0
:1008E70093F8740193F5828883E4737402936860C4
:0608F700EFA3A3A380DFC4
:1008FD00D083D082F8E4937012740193700DA3A38A
:10090D0093F8740193F5828883E473740293B5F0C0
:0D091D00067403936860E9A3A3A3A380D828
:1029CF000230CBE493A3F8E493A34003F68001F223
:1029DF0008DFF48029E493A3F85407240CC8C33309
:1029EF00C4540F4420C8834004F456800146F6DFD8
:1029FF00E4800B01020408102040809031E4E47E53
:102A0F00019360BCA3FF543F30E509541FFEE493CC
:102A1F00A360010ECF54C025E060A840B8E493A393
:102A2F00FAE493A3F8E493A3C8C582C8CAC583CABE
:102A3F00F0A3C8C582C8CAC583CADFE9DEE780BE76
:0131ED0000E1
:0D092A00E6FB08E6F908E6FA08E6CBF8223D
:0C093700E0F8A3E0F9A3E0FAA3E0FB2243
:0D094300E2FB08E2F908E2FA08E2CBF82234
:10095000E493F8740193F9740293FA740393FB22FD
:00000001FF
